:020000040800F2
:10000000A8200020910100082BB70008556E0008B9
:1000100000000000000000000000000000000000E0
:10002000000000000000000000000000E9020108DC
:100030000000000000000000E5000108110A0108AE
:10004000A3010008A3010008A3010008A301000800
:10005000A3010008A3010008A3010008A3010008F0
:10006000A3010008A3010008A3010008A3010008E0
:10007000A3010008A3010008A3010008A3010008D0
:10008000A3010008A3010008A3010008A3010008C0
:10009000A3010008A3010008A3010008A3010008B0
:1000A000A3010008A3010008A3010008A3010008A0
:1000B00021330108A3010008A3010008A3010008DF
:1000C00000F002F800F038F80CA030C80838241806
:1000D0002D18A246671EAB4654465D46AC4201D180
:1000E00000F02AF87E460F3E0FCCB646012633427A
:1000F00000D0FB1AA246AB463343184770CB010031
:1001000090CB01000023002400250026103A01D3E3
:1001100078C1FBD8520700D330C100D50B607047BF
:1001200010B5642902D100F0A1F810BD002010BD67
:100130001FB51FBD10B510BD01F0F0F91146FFF756
:10014000F7FF13F00FFB01F008FA03B4FFF7F2FF1B
:1001500003BC01F049FA000070B505460C4616468E
:1001600002E00FCC0FC5103E102EFAD2082E02D39B
:1001700003CC03C5083E042E07D301CC01C5361FAE
:1001800003E021782970641C6D1C761EF9D270BDC5
:100190000748804707480047FEE7FEE7FEE7FEE71F
:1001A000FEE7FEE704480549034A054B7047000097
:1001B000790B0108C1000008A81C0020A82000201D
:1001C000A81C00200FB47CB50C0009AA009001D037
:1001D0000019401E094B7B4469460190089801F0C4
:1001E00090F8002C054603D06946002001F09CF8E9
:1001F00028467CBC08BC04B0184700005911000018
:10020000F8B50E460446002020622046E168884783
:10021000002829D0252802D06268A16820E0E16882
:1002200020460027884705001ED028464138192857
:1002300002D80127FF022035324620462760294692
:10024000FFF76EFF002808D0012804D0F61DF6083D
:10025000F6000836D9E7361DD7E762682846A16858
:100260009047206A401CCFE7206AF8BDF7B500250B
:1002700075291068009914A611D0C046C046002800
:1002800002DA404211A608E0009909688A0701D500
:100290000FA602E0490704D50EA6012501E0C046DD
:1002A000C046009F0024243704E001F04AF83031B2
:1002B0003955641C0028F8D12B4632462146009857
:1002C00000F0C1FFFEBD0000000000002D00000096
:1002D0002B0000002000000001E004C0091F0429D9
:1002E000FBD28B0701D50280801CC90700D00270A9
:1002F000704700290BD0C30702D00270401C491E72
:10030000022904D3830702D50280801C891EE3E7FB
:100310000022EEE70022DFE7002203098B422CD304
:10032000030A8B4211D300239C464EE003460B4345
:100330003CD4002243088B4231D303098B421CD3A7
:10034000030A8B4201D394463FE0C3098B4201D399
:10035000CB01C01A524183098B4201D38B01C01AD1
:10036000524143098B4201D34B01C01A5241030948
:100370008B4201D30B01C01A5241C3088B4201D3F7
:10038000CB00C01A524183088B4201D38B00C01AA4
:10039000524143088B4201D34B00C01A5241411ACB
:1003A00000D201465241104670475DE0CA0F00D0AE
:1003B0004942031000D34042534000229C460309A7
:1003C0008B422DD3030A8B4212D3FC22890112BA2D
:1003D000030A8B420CD3890192118B4208D3890105
:1003E00092118B4204D389013AD0921100E089091D
:1003F000C3098B4201D3CB01C01A524183098B42FE
:1004000001D38B01C01A524143098B4201D34B01E6
:10041000C01A524103098B4201D30B01C01A524149
:10042000C3088B4201D3CB00C01A524183088B42D0
:1004300001D38B00C01A5241D9D243088B4201D359
:100440004B00C01A5241411A00D201466346524144
:100450005B10104601D34042002B00D54942704743
:1004600063465B1000D3404201B50020C046C04641
:1004700002BD7047704770470246C80FC0078143EE
:100480004B0030B54B405B009B0D20D01923DB06A1
:10049000C91801231B05994220DB0324A407042566
:1004A0001346AB400BD3002B04D1EB0613409B004B
:1004B000E34204D401246407002312195941FF23A5
:1004C0001B0599420BD2C9000143500F09E0CB0232
:1004D00004D501430803024305D0054830BDFF2180
:1004E000C905084330BD084607210905884330BDCA
:1004F0000000C07FF0B50C46871A9C410D46861A55
:100500009D4103D2C01BA141D21963410D0D1F0DA6
:10051000C94EEC1BAE435CD07F057F0D0026002F3B
:1005200051D02D05AC46A943DD020123ED0A1B0580
:100530001D4320231B1B24D41746E7403818714164
:100540002F46E740CC199D402818314661410C0DDB
:1005500027D161449A4013D50023401C59415200D1
:100560000ED14008400001224B005205D34207D370
:1005700005204007C14201D5B04900E0B0493046EE
:10058000F0BD6B00002A00D001229A181F23203CE6
:100590001B1B01D5002302E0E540281871410C0D1A
:1005A000D7D0012424050919C407CD0740084908FC
:1005B000E40F28436144002CD5D00024401C614145
:1005C0009A40D0D1CDE76A05520DD9D1C90FC907DC
:1005D000D5E79C4D4E00002801D0012400E0002406
:1005E00034195F00002A01D0012600E00026BE1960
:1005F000954FAC420CD8AE420AD8B44206D0012581
:100600006D05EC42BCD010461946F0BD9942FCD0B5
:1006100000203946F0BDF0B51FB40C460F46811AD4
:100620009F412546861A9D4106D20125ED076F4060
:10063000401ABC4152187B41210D1E0D8D1BAC464A
:100640007D4D8D437ED075056D0D7CD00D05AE467C
:10065000AC431B031B0B794D52429D412023664640
:100660009B1B14D31746F74038180026009074419E
:1006700060462F460741E41900989D4028186641BE
:1006800016D4714671189A4025D5012320E093189D
:100690002A466A415200002B00D0521C1E23203EE5
:1006A0009B1B002B61DD3541EE1728186641E8D50C
:1006B000001876415B1C9A4000D3401C4B05F31890
:1006C0001524E34010D3002B52D071467118D30F7C
:1006D000C01802D3491C05B0F0BD0123DB079A42C4
:1006E000F9D140084000F6E701225205B21801D1C5
:1006F000002853D00123CC0ADB029943891E002A2B
:1007000008D1020C03D0020C0004103902E00246AA
:10071000002020390023550B05D112020823550B68
:1007200001D152010D23550C01D112011B1DD50C15
:1007300001D192009B1C150D01D152005B1C20259C
:10074000EE1A01E02CE022E00546F5401543984002
:10075000CA1AE10769181305C918002ABBDA032071
:1007600040070818C10FC9070FE071466118B2E7CA
:10077000F10740080843711071444A000CD001236E
:100780005B059A42A7D2C90FC9070020A3E7490514
:10079000490D26D1002001E00028F4D100219AE77C
:1007A000284D6600002801D0012100E000217118C9
:1007B0005F00002A01D0012600E00026BE19224F6A
:1007C000A94210D8AE420ED8B14208D001256D051D
:1007D000E94206D01946A802414010467BE79C42F8
:1007E00001D0214677E70020394674E710B50C4662
:1007F0005C4005D50124E4076340FFF70CFF10BD02
:10080000FFF778FE10BD30B40C465C4004D50124DF
:10081000E407634030BC6DE630BCFCE670B50124F3
:10082000E40761400D465D4002D4FFF763FE70BDF2
:100830006340FFF7F0FE70BDFF0700000000F0FF0F
:100840000000F07F0000E0FF0000F87FF0B5F94DF8
:100850000C091E092C402E402F468BB0A7437DD09B
:10086000B543FCD0002E7AD0002CFCD00D465D4064
:10087000ED0F2543AC1BFF25AD0464190894C50298
:10088000440DC9022143500DDC0204430120C0077E
:1008900001430443D2020191200C110C00958C46B7
:1008A000010423468B430A9161460904E24D8A43C1
:1008B0000991010A7D4449198039097805464D435B
:1008C00001266D18F605751B6943C90C640B891C5C
:1008D0004C436418B5012C1B250C2E04B4434C4327
:1008E0004D43210C691889090591009DE90701D044
:1008F0000121C90704912C4601996708CD072F43B0
:100900004C08059DE10B4D432D0C29466646754369
:1009100002950D4645432E46029D7D1BB441009530
:100920000D465D4301942C0C2F040D465543AE46F5
:100930002D0C3D43029503947546049C2D04641BC5
:10094000049406D2029C039D641C00267541039505
:10095000029401AC70CC009F7D1B01E03EE162E19E
:10096000B44109040095079101940599A4086143D5
:10097000090C0C464443650BE7040C466646744379
:10098000A646640B3C43039502947446049DE4041C
:100990002C1B049406D2029C039D641C0026754106
:1009A0000395029401AC70CC009F7D1BB44101946F
:1009B0000C465C430095650FE7000C465443A64681
:1009C000640F3C43039502947446049DE4002C1B81
:1009D000049406D2029C039D641C00267541039575
:1009E000029401AC70CC009F7D1BB441AE09AF06F0
:1009F000049DC900AD092F43049DA406AD060495CE
:100A0000079D344369180791059DE10B4D432D0C5B
:100A100029466646754302950D4645432E46029D7E
:100A20007D1BB44100950D465D4301942C0C2F04B1
:100A30000D465543AE462D0C3D4302950394754635
:100A4000049C2D04641B049406D2029C039D641C28
:100A5000002675410395029401AC70CC009F7D1B6C
:100A6000B44101948C050694079C890A611800958D
:100A70000791019C0599A4086143090C0D46454363
:100A8000680BEF040D46644665436C0B3C43049FC2
:100A9000ED047D1BAC4602D20025641C6841009E1B
:100AA000019D371B85410846584301950C46460F6A
:100AB000C5005443600F28436546E4002C1B02D256
:100AC0000025401C6E41019D3F1AB5412846BD09D5
:100AD000800628438446A009BF064E020699A40654
:100AE00076180743079D002068410A99079019432B
:100AF0000020099B00906046FF1913434041E20F1C
:100B000064003A43A4460446D71A8C41A04203D954
:100B10000120009020463A46C70F94184041624693
:100B2000D20F2243644664000494009CBE466400D5
:100B3000D71AA446044602978C417746002F01D16C
:100B4000A04204D96046401C8446029A2046C40F45
:100B5000A64694184041049A0546D20F22436446A3
:100B60006400D31A8D417146002901D1A84202D9EF
:100B700028461A46641C10430122002800D0164360
:100B800061020020079B891904465C410223002C66
:100B900002DB491813466441089DCE0A2D145D19E5
:100BA0004B056705E10A2C050D1908993E43C90755
:100BB0006940002B08D0934006D30022761C514197
:100BC000002B01D1760876001C4A002D43DB15422C
:100BD00041D0AA433FD030460BB0F0BD06180D46B9
:100BE0004D41174C7642AC411AD395181C465C41D6
:100BF000134A6D42A24113D3012252054C00D44244
:100C00000AD15C00D4420BD04B4002D59202114372
:100C1000E2E749004908DFE75940C90FC90718E072
:100C200000200849D8E7054801420DD10342F7D01A
:100C3000F2E700000000FF0708C001000000F07F9D
:100C40000000E0FF0000F87F114859400143C01246
:100C500041400020C0E70123089A9B069A4205DC28
:100C6000032252078918C90FC907B5E705225207A1
:100C70008918074A1143D2125140ADE770B51546A5
:100C80001C4602460B4628462146FFF7DFFD70BD95
:100C9000FFFFFF7F30B50346CA02400D1043164DDB
:100CA000164C0A1502D02043002A06DBAA1A002A95
:100CB00012DDD040FF2A0BDC30BD5205520D01D1B0
:100CC00040004008AA1A07D4D0404042FF2A01DD64
:100CD000002030BD0028FCDD4A00002B01D001209F
:100CE00000E00020101801225205D042F0D8C817A9
:100CF000C043604030BD00001E04000000000080C2
:100D00000346CA02400D10B510430A1504D0012451
:100D1000E4072043002A05DB0A4CA21A04D4D04081
:100D2000FF2A00DD002010BD4A00002B01D0012069
:100D300000E00020101801225205D042F2D8C81756
:100D4000C04310BD1E0400001F22030C02D10F225D
:100D5000000402D0030E03D004E0002001467047D7
:100D60000002083A030F01D10001121F830F01D1C5
:100D70008000921E002801DB4000521E120551180F
:100D80004205C012411810467047C10FC90700D074
:100D90004042012292071143D6E701218907D3E798
:100DA000F0B58B4C0F09254689B0BD437BD01D099A
:100DB0002646AE43FAD00E465E402740F60F3E432D
:100DC000254071D024012142FBD0FF24AD19A40499
:100DD0002D1B039501252D05DB02DB0AC9022B43E0
:100DE000C90A29431E010901040F130F05012143FC
:100DF0001701880B820391432D098C46A90B1E43D2
:100E00008A039543B30B9A0396433F09BA0B9403A5
:100E1000A74302962E467E430497B6464E19D7192D
:100E20000C460196544305977E43371B7646BF1BFD
:100E30003601B646BE0B361900967646BC04371905
:100E4000009C01D3641C00946400002F01D0012693
:100E50003443029E049F754366467E4304967600A3
:100E600034196E0034190094029C019E1C196643CB
:100E7000751BAE46069465464519059C05956C4361
:100E8000594375460891691A0191049E01465143E0
:100E9000A41B0491611A009C0791E10605D0610929
:100EA0000122114302E072E06EE06109089D002713
:100EB0002C0A2D066918049D7C412A0A2D06691802
:100EC000019D6241AC0DAD026D185441079A910D20
:100ED000920255196141029A644658435443069B55
:100EE000059A5A43121A131B9A0E9B015B187A41FA
:100EF000010B0005C3185141220A200644195A412A
:100F00009A4200D2491C01204002814203D315239A
:100F10000226F64302E014230326F6432020C51AD6
:100F2000A9401746AF40DA400A4320460399D8400B
:100F30000914731819055118039A3843D207514000
:100F4000AC4009D00122944006D30022401C5141FC
:100F5000002C01D1400840001E4A934212D30122C6
:100F600003989206904207DB0520400709181A48AB
:100F70000143C012414004E0032040070818C10F9C
:100F8000C907002009B0F0BD0020F107FAE70518F5
:100F90000C464C4111486D42A04115D394181A4695
:100FA0005A410E48644290410ED301204A00400548
:100FB000824209D35A00824206D35940C90F084AD7
:100FC000C90700201143DDE700200649DAE70000E9
:100FD0000000FF07FE070000FFFFFF7F0000E0FFAB
:100FE0000000F07F0000F87F0121C90501234118AE
:100FF00042001B06D3185B0E0AD0C1100722D2068E
:10100000891840075242D14201D5520089187047D1
:10101000090208D50146002A03D0C10FC9070020E4
:10102000704710467047420202D0002002497047C4
:10103000072109050143F4E70000F87FF0B5FF251B
:101040002D04C609C209FF2704462E400137CB09EB
:101050003E4348402A402B400746002A6BD0002BD5
:1010600069D0AA4267D0AB4265D0002800DA324688
:101070000125ED0529432C4309022002090AD21A51
:101080004B0C7F24E31A434C000A7C44E35C7D2430
:101090002404121914145B00A218884201D3521CB4
:1010A00000E0400049420C465C4324115C43DB01F4
:1010B0006415E318040A5C43C502200D0C46444342
:1010C0006419250A5D432303EC0C0D4665430003B8
:1010D0000019EB184C42A34201D35B18401CD40505
:1010E0002018002B07D05B00C91804D3401C00292E
:1010F00001D1400840003F2189048A4209D3002AD7
:1011000008DC1106090F04D0032149074018C00F5D
:10111000C007F0BD01224100120689187F22520645
:101120009142F6D205214907C84201D59010F0BD81
:10113000FF20C005F0BD002F00DA32461648AA4253
:1011400007D2AB4205D21902090E17D0F80FC0071B
:10115000F0BDFF2563002D06AB42F9D84900A94236
:10116000F6D8AB4201D1A942F2D0A94201D1002167
:1011700001E061004908D0050843F0BD1102090EE5
:10118000FBD0FF200243D005F0BD0A4601461046C1
:1011900054E70000B2B801000000C07F10B501465E
:1011A0009E240002CA15A307002A02D01843002A71
:1011B00004DBA21A002A0CDDD04010BD1206120E6C
:1011C00001D140004008A21A03D4D0404042002878
:1011D000F3DDFF2248001206904201D9002010BD25
:1011E000C817C043584010BD1F22030C02D10F2264
:1011F00000041CD0030E01D10002083A030F01D1F4
:101200000001121F830F01D18000921E002801DB14
:101210004000521ED2055118021251181922904056
:1012200004D3491C002801D14908490008467047E9
:10123000C10FC90700D04042012292071143D3E7F2
:1012400001218907D0E7FFB504460D4681B024305F
:1012500000902168880604D51022E069914321603E
:1012600000E00120A84201DD471B00E000270498B0
:10127000A1697A191018081AA0612078C00602D452
:101280002046C046C046002608E003986268A16870
:10129000805D9047206A401C761C2062049886423C
:1012A000F3DB2078C0060AD52046C046C04606E0DB
:1012B0006268A16830209047206A401C206238464E
:1012C0007F1E0028F4DC07E000986268A168405D9A
:1012D0009047206A401C206228466D1E0028F3DCDF
:1012E0002046C046C0462078000602D5022005B040
:1012F000F0BD0120FBE7000001694A1C026108788B
:10130000704700B58FB00291002105910549019306
:1013100079440391114604906846FEF771FF0FB0BF
:1013200000BD0000E5FFFFFF0A681070521C0A6054
:1013300070470CC908399A4202D2531C0B601070D6
:10134000704701468008081A02091018020A10188E
:10135000020C1018C008820012185200891A01E00D
:10136000401C0A390A29FBD270470000F0B501235E
:101370000A0DDB0200249A43E4430025002A28D00A
:101380005B1E9A4223D05B10D61AA64228DB721C41
:1013900048D0342E18D20222142E2BD822D00B463D
:1013A0000D36B34001D100280FD00024701E0B462B
:1013B0008340DB0FF2412846551EA943002B03D082
:1013C0008918002C00D09143F0BD0124EEE79A4229
:1013D00039D04A000243F7D0C90FC9072846F0BDEB
:1013E000002223E00122C30F400001D00024E2E7E5
:1013F0000124E0E70346133EB34011D00023741EDE
:101400000746A740FC0FF2411746521E9043002C9E
:10141000E5D0002B00D0521CC01969419043F0BDAB
:101420000123ECE701220B0318430AD00023C90F64
:10143000C9072846002AF2D0002BF0D1054A1143F3
:10144000F0BD0123F3E70A0301D10028F8D0002002
:101450000149F0BD0000F03F0000F87FC80212D53E
:101460004803400F002804D0C803C043012188402E
:101470007047EFF3008000010009032109070843CA
:1014800080F300887047002070470000F8B5224CB8
:101490004E00069DA6420AD8A64201D1002806D1D8
:1014A0005E00A64203D8A6420AD1002A08D00D2425
:1014B000240425422CD029460020FFF7CFFFF8BD99
:1014C0000C461C430CD4994202D0EFF30080F8BDC7
:1014D000904202D0EFF30080F8BDEFF30080F8BD3A
:1014E00009242407E5008B4206D0EFF30080A043D7
:1014F000591A06D2284304E0101A05D3EFF30080EE
:10150000A04380F30088F8BDEFF30080A043F1E72B
:10151000009500F02BF8F8BD0000E0FF754600F0E4
:101520005FF8AE46050069465346C008C0008546D0
:1015300018B020B5FEF736FE60BC00274908B64655
:101540000026C0C5C0C5C0C5C0C5C0C5C0C5C0C5D2
:10155000C0C5403D49008D46704710B50446C046A1
:10156000C0462046FEF7F1FD10BD000010B500207A
:101570000249029A00F004F810BD00000000F87F54
:1015800010B50C461107090F092904D00A290AD001
:1015900008290CD104E011460820FFF75FFF06E0A0
:1015A000510606D501E0510601D50120C0072146AC
:1015B00010BDD10607D501010909CC084907000E65
:1015C0000006044309E0410F20024907000A0143D5
:1015D000200E00061D22D14101430846E7E7000026
:1015E00000487047481C002001491820ABBEFEE7A8
:1015F00026000200704770B58C180578401C6B07F8
:101600005B0F01D10378401C2A1106D10278401CDF
:1016100003E00678401C0E70491C5B1EF9D12B07B5
:1016200005D40023521E0DD40B70491CFAE7037831
:10163000401CCB1A921C03E01D780D70491C5B1CEA
:10164000521EF9D5A142D8D3002070BD08B531484B
:10165000006B0121490208432E4908630846006BCC
:10166000491588432B49086300BF2A484030006869
:101670004915084327494031086008460068491564
:101680000840009000BF00BF234824490860084676
:1016900003F0B6FB00202149486000211F4881600B
:1016A000C160017401214161002101760121C16104
:1016B00007214904016203F027FC002801D000BF84
:1016C000FEE71448C06A0121890708431149C8622E
:1016D0000846C06A890488430E49C86200BF0846AC
:1016E000C06B890408430B49C8630846C06B890472
:1016F0000840009000BF00BF084803F025FA00280A
:1017000001D000BFFEE7062000F0A6FD00B20449AC
:10171000088008BD0010024000240140801600200F
:10172000441200203EB50446002000900190029033
:10173000002C04D0012C1BD0022C25D123E0052045
:10174000009001200190072002906946124803F0A2
:1017500091FA12481249086001204860084604F0D6
:101760000DF90F4804F050F90D4804F069F90CE048
:101770001120009001200190072002906946064840
:1017800003F078FA01E03EBDFDE700BF012000F064
:1017900065F800BFF7E70000801600200003014055
:1017A000B416002070B50446002520684068012169
:1017B000C90608432168486004F02AF805460EE08F
:1017C00004F026F8401B032809D9E06A10210843D9
:1017D000E062206B012108432063012070BD206876
:1017E00040680121C90608400028E9D11020C04303
:1017F000216808604010216808600020EEE770B59D
:101800000446002520688068C007C00F01214840B9
:101810004840002820D0206880688843216888607C
:1018200003F0F6FF05460EE003F0F2FF401B03282D
:1018300009D9E06A10210843E062206B01210843C6
:101840002063012070BD20688068C007C00F01219F
:10185000484048400028E7D10020F3E770B504462F
:101860000025002C07D0154800F02EF8012014495F
:10187000887008701AE003F0CBFF054605E003F01E
:10188000C7FF401B032800D905E00E48006802216D
:1018900008400028F3D000BF0848FFF783FF09483D
:1018A0004030006900200649887008700020044913
:1018B000C87048700871C860C88070BD801600206C
:1018C000481200200024014038B5044600250020BD
:1018D000009020688068C007C00F01214840484040
:1018E00000283BD120688068084321688860102068
:1018F000C0432168086040102168086018491948F1
:101900000068FEF709FD14214843009002E00098AA
:10191000401E009000980028F9D103F079FF054699
:1019200013E003F075FF401B03280ED9E06A102175
:101930000843E062206B01210843206300BF0021BF
:101940002820015500BF012038BD20688068C007ED
:10195000C00F0121484048400028E2D00020F3E7B2
:1019600040420F007812002001460748C0880880D6
:101970000548C078002804D00020034AD070012018
:1019800070470020FCE700004812002070B50021DD
:1019900000220023474CA478002C7DD0454C2478AD
:1019A000002C0AD00024434D2C70434CA46805251C
:1019B0002D052C43404DAC6072E03E4C6478002C09
:1019C0006ED001243B4D2C7000246C703A4C403496
:1019D000246921B2394C0025655F4C19002C01DBCC
:1019E000002901D100210FE0344C0025655F4C191E
:1019F000334DAC4202DC2C46A14201D1304903E018
:101A00002E4C24880C1921B22A4CA468294E367910
:101A10007600A153274CA468264D2D796D00645B98
:101A2000244DED686419234DEC602C462479641C28
:101A30002C712C4624790A2C32DB2C46A46822888F
:101A40002C46A4682388012016E01A4CA46845009F
:101A5000645B9C4204DD174CA4684500635B09E0AD
:101A6000144CA4684500645B944203DA114CA468EA
:101A70004500625B441CE0B20A28E6DB0D4CE468DA
:101A8000E41AA41A0B4DEC602C46E4686403240CA1
:101A9000EC800024EC6000E00BE02C710124EC7081
:101AA000054C246802252C40022C02D10124014D52
:101AB0006C7070BD481200200024014044120020C8
:101AC000FF0F000070B50546A74C01218902204692
:101AD000FEF720FCA5482060C143FF20B93001512A
:101AE0000121DC2001510321E0200151002D37D0DC
:101AF0009F49E42001510021E8200151AF21490113
:101B0000EC2001510021FF20313001513221001D14
:101B100001516421001D01510021FF206D30015150
:101B20000121001D0151A921FF2091300151A32164
:101B3000001D0151A721001D01510021001D01516F
:101B4000001D0151001D0151001D01512021001DEA
:101B500001510821001D01510321001D0151FEE02A
:101B6000844CE4200159804880304166E8200159C6
:101B70007D4880308166EC2001597B488030C16609
:101B8000F0200159784880300167F42001597648E7
:101B900080304167F8200159734880308167FC200C
:101BA000015971488030C167E014015972480160E1
:101BB000FF200530015970484160FF20093001596C
:101BC0006D488160FF200D3001596B48C160FF20D6
:101BD0001130015968480161FF20153001596648EC
:101BE0004161FF201930015963488161FF201D3098
:101BF00001596148C161FF20213001595E480162ED
:101C0000FF20253001595C484162FF2029300159ED
:101C100059488162FF202D3001595748C162FF2089
:101C20003130015954480163FF2035300159524881
:101C30004163FF20393001594F488163FF203D3017
:101C400001594D48C163FF20413001594A480164A0
:101C5000FF204530015948484164FF20493001596F
:101C600045488164FF204D3001594348C164FF203D
:101C70005130015940480165FF20553001593E4817
:101C80004165FF20593001593B488165FF205D3097
:101C900001593948C165FF20613001593648016654
:101CA000FF206530015934484166FF2069300159F1
:101CB00031488166FF206D3001592F48C166FF20F1
:101CC000713001592C480167FF20753001592A48AD
:101CD0004167FF207930015927488167FF207D3017
:101CE00001592548C167FF208130015922488030C1
:101CF0000160FF20853001591F4880304160FF207E
:101D0000893001591C4880308160FF209D30015985
:101D100019488030C161FF20A13001591648803038
:101D20000162FF20A5300159134880304162FF2035
:101D3000A9300159104880308162FF20AD3001592F
:101D40000D488030C162FF20B13001590A4880300F
:101D50000163FF20B53001590748803041630120FD
:101D60000649087070BD00001C170020AA5555AA2E
:101D70004C04000000F001081C180020681200202C
:101D800010B505480078002804D0002002490870EA
:101D900002F0C4FD10BD00006812002000B599B02B
:101DA00030210DA8FEF7B6FA002009900A900B909A
:101DB0000C9024216846FEF7ADFA0F200D90FF200D
:101DC00001301290002013901B48008CC004C00CFE
:101DD0000121C9030843149000200E9003200F90A6
:101DE000002015901090880011900220169002217A
:101DF0001791042118910DA804F0CEFA002801D003
:101E000000BFFEE70720099002200A9000200B90F7
:101E10000C90022109A804F03DF9002801D000BF70
:101E2000FEE701208003009000020890684604F05D
:101E30002DF819B000BD00000032FF1F70B5FE4C38
:101E4000FE492068884238D1FF20B9300059C94383
:101E5000884232D1E2142146F94802F08FFDF94957
:101E6000E06A0860F849206B0860606B4860A06B0E
:101E70008860E06BC860206C0861606C4861206C11
:101E80008861E06CC861206D0862606D4862A06D79
:101E90008862E06DC862206F0863606E4863A06E60
:101EA0008863E06EC863802000590864842000596C
:101EB00048648820005988640CE00120FFF702FE86
:101EC00010F070FBFFF75CFFFF220132DA49DC48BB
:101ED00002F054FD372000F0BFF985B229460020FA
:101EE0000EF06AFD382000F0B7F985B229460120CE
:101EF0000EF062FD3C2000F0AFF985B228460EF0EE
:101F0000EDFC3D2000F0A8F90546294600200EF022
:101F1000D5FC3E2000F0A0F90546294601200EF030
:101F2000CDFC3F2000F098F90546294602200EF02E
:101F3000C5FC402000F090F90546294603200EF02C
:101F4000BDFC412000F088F90546294604200EF02A
:101F5000B5FC422000F080F90546294605200EF028
:101F6000ADFC432000F078F90546294606200EF026
:101F7000A5FC442000F070F90546294607200EF024
:101F80009DFC452000F068F90546294608200EF022
:101F900095FC462000F060F90546294609200EF020
:101FA0008DFC472000F058F9054629460A200EF01E
:101FB00085FC482000F050F9054629460B200EF01C
:101FC0007DFC492000F048F9054629460C200EF01A
:101FD00075FC4A2000F040F9054629460D200EF018
:101FE0006DFC4B2000F038F9054629460E200EF016
:101FF00065FC4C2000F030F9064611F08FF90546DB
:10200000294600200EF086FC4D2000F025F90646FA
:1020100011F084F90546294601200EF07BFC4E2084
:1020200000F01AF9064611F079F905462946022012
:102030000EF070FC4F2000F00FF9064611F06EF91B
:102040000546294603200EF065FC502000F004F9F7
:10205000064611F063F90546294604200EF05AFCA5
:10206000512000F0F9F8064611F058F905462946C6
:1020700005200EF04FFC522000F0EEF8064611F05D
:102080004DF90546294606200EF044FC532000F089
:10209000E3F8064611F042F90546294607200EF0FE
:1020A00039FC542000F0D8F8064611F037F90546FF
:1020B000294608200EF02EFC552000F0CDF80646EB
:1020C00011F02CF90546294609200EF023FC562074
:1020D00000F0C2F8064611F021F9054629460A200B
:1020E0000EF018FC572000F0B7F8064611F016F96C
:1020F000054629460B200EF00DFC582000F0ACF8E8
:10210000064611F00BF9054629460C200EF002FC9C
:10211000592000F0A1F8064611F000F905462946BD
:102120000D200EF0F7FB5A2000F096F8064611F04D
:10213000F5F8054629460E200EF0ECFB4C2000F089
:102140008BF8064611F0EAF80546294600200EF005
:10215000E1FB4D2000F080F8064611F0DFF805465F
:10216000294601200EF0D6FB4E2000F075F80646F9
:1021700011F0D4F80546294602200EF0CBFB5B2077
:1021800000F06AF885B2294600200EF0E3FB5C20DF
:1021900000F062F885B2294601200EF0DBFB6420D6
:1021A00000F05AF885B2294600200EF0C3FB6520E6
:1021B00000F052F885B2294601200EF0BBFB6620E4
:1021C00000F04AF885B2294602200EF0B3FB6720E2
:1021D00000F042F885B2294603200EF0ABFB6820E0
:1021E00000F03AF885B2294604200EF0A3FB6920DE
:1021F00000F032F885B2294605200EF09BFB6A20DC
:1022000000F02AF885B2294606200EF093FB6B20D9
:1022100000F022F885B2294607200EF08BFB6C20D7
:1022200000F01AF885B2294608200EF083FB6D20D5
:1022300000F012F885B209E000F00108AA5555AA8D
:102240001C1700200C0000201C1B00202946092020
:102250000EF070FB70BD000001466E2901DA002906
:1022600001D1002070478800014A1058FAE70000A9
:102270001C1700206E2901DA002900D170478A005E
:10228000054B9A58824204D08A0098500122034B91
:102290001A7000BFF2E700001C170020681200202F
:1022A00010B510F07FF9FFF76BFDFF2201320249F4
:1022B000024802F063FB10BD00F001081C1700206B
:1022C00007B584B002F008FC0390049801286FDC85
:1022D0000498C10F02900818401041000298401A5B
:1022E00032D1069800281CD1F8488068012806D110
:1022F000039800280BDC00210598018007E002F01C
:102300001DFC029002F046FB010C05980180EF488D
:10231000806802280FD10398002803DB002105986C
:1023200001800CE202F00AFC029002F033FB010C87
:1023300005980180F5E702F001FC029002F02AFB0B
:10234000010C05980180ECE706980028E9D1DF48E8
:10235000806801280ED10398002803DC002105982D
:10236000018007E002F0EAFB029002F013FB81B269
:1023700005980180D548806802280FD1039800286D
:1023800003DB002105980180CBE702F0D7FB029028
:1023900002F000FB81B205980180C2E702F0CEFB9B
:1023A000029002F0F7FA81B205980180B9E7FFE7E1
:1023B000049802285FDB049803285CDC0498C10FB2
:1023C00002900818401041000298401A29D106983E
:1023D0000028A6D1BD48806801280BD103980028A9
:1023E00003DC00210598018004E002F075FB010C7C
:1023F00005980180B548806802280CD10398002810
:1024000003DB0021059801808BE702F065FB010CDE
:102410000598018085E702F05FFB010C05980180BB
:102420007FE70698002885D1A848806801280BD14D
:102430000398002803DC00210598018004E002F0E5
:102440004BFB81B205980180A048806802280CD11E
:102450000398002803DB00210598018061E702F062
:102460003BFB81B2059801805BE702F035FB81B24E
:102470000598018055E7049804280EDB0498052888
:102480000BDC0698002888D10498001FC0B2029087
:1024900002F032FB0599088043E7049806280EDB1A
:1024A000049807280BDC06980028ADD10498801FFB
:1024B000C0B2029002F036FB0599088031E704981B
:1024C000082806D1069800289ED16621059801802B
:1024D00027E70498092810D10698002804D102F0B3
:1024E000E9FA059908801CE7069801288CD105981F
:1024F000008802900EF0F2F913E704981E281DDB05
:1025000004981F281ADC0498C10F02900818401084
:1025100041000298401A08D1069800289ED102F086
:10252000B7FA010C05980180FBE60698002895D1C2
:1025300002F0AEFA81B205980180F2E604982028F4
:102540004BDB0498252848DC0498C10F029008183A
:10255000401041000298401A18D1069800280DD169
:1025600004982038C10F02900818C005000E019091
:1025700002F094FA010C05980180D2E60698012831
:102580008AD10598008852490880CAE60698002832
:102590000DD104982038C10F02900818C005000E14
:1025A000019002F07BFA81B205980180B9E60698A5
:1025B00001288DD146480088000405990988084300
:1025C000019004982038C10F02900818C005000E31
:1025D000009001990EF072F9F9E30498262854DB73
:1025E00004982B2851DC0498C10F02900818401061
:1025F00041000298401A1BD10698002810D1049877
:102600002638C10F02900818C005000E009002F095
:1026100057FA019002F0BEF9010C05980180D6E34B
:102620000698012889D10598008829490880CEE3B9
:102630000698002810D104982638C10F0290081877
:10264000C005000E009002F03BFA019002F0A2F9E2
:1026500081B205980180BAE3069801288DD11C4803
:1026600000880004059909880843009010F056FE80
:10267000019004982638C10F02900818C005000E7A
:10268000009001990EF046F9A1E304982D2821DB72
:1026900004982E281EDC0498C10F029008184010E0
:1026A00041000298401A08D10698002894D102F0FF
:1026B000EFF981B20598018089E3069800288BD153
:1026C00002F0E6F9010C0598018080E31C1B002054
:1026D0000412002004982F284BDB0498342848DC8F
:1026E0000498C10F02900818401041000298401A47
:1026F00026D1069800280DD104982938C10F0290E0
:102700000818C005000E019002F0C8F981B20598C2
:1027100001805CE30698012889D1FD480088000407
:10272000059909880843019004982938C10F02903F
:102730000818C005000E009001990EF0BFF846E39E
:10274000069800280DD104982938C10F0290081866
:10275000C005000E019002F0A1F9010C059801805E
:1027600035E3069801288FD105980088E84908804C
:102770002DE30498352854DB04983A2851DC04985A
:10278000C10F02900818401041000298401A2CD145
:102790000698002810D104982F38C10F029008180D
:1027A000C005000E009002F08BF9019002F0F2F8E3
:1027B00081B2059801800AE30698012885D1D448A2
:1027C00000880004059909880843009010F0A6FDD0
:1027D000019004982F38C10F02900818C005000E10
:1027E000009001990EF096F8F1E20698002810D1B9
:1027F00004982F38C10F02900818C005000E0090F1
:1028000002F05EF9019002F0C5F8010C0598018014
:10281000DDE20698012892D105980088BC4908801D
:10282000D5E204983C281DDB04983D281ADC049866
:10283000C10F02900818401041000298401A08D1B8
:10284000069800288CD102F023F9010C059801802C
:10285000BDE2069800288BD102F01AF981B20598E2
:102860000180B4E204983E284BDB0498432848DCFE
:102870000498C10F02900818401041000298401AB5
:1028800018D1069800280DD104983238C10F029053
:102890000818C005000E019002F000F9010C05981F
:1028A000018094E20698012885D10598008898490E
:1028B00008808CE2069800280DD104983238C10FA8
:1028C00002900818C005000E019002F0E7F881B2EE
:1028D000059801807BE20698012885D18C48008804
:1028E0000004059909880843019004983238C10F03
:1028F00002900818C005000E009001990DF0DEFF4F
:1029000065E20498442854DB0498492851DC049873
:10291000C10F02900818401041000298401A1BD1C4
:102920000698002810D104983838C10F0290081872
:10293000C005000E009002F0C3F8019002F02AF8E2
:10294000010C0598018042E20698012889D105987A
:1029500000886F4908803AE20698002810D1049850
:102960003838C10F02900818C005000E009002F020
:10297000A7F8019002F00EF881B20598018026E2D6
:10298000069801288DD162480088000405990988BD
:102990000843009010F0C2FC019004983838C10F31
:1029A00002900818C005000E009001990DF0B2FFCA
:1029B0000DE204984B281DDB04984C281ADC04987F
:1029C000C10F02900818401041000298401A08D127
:1029D0000698002894D102F05BF8010C059801805C
:1029E000F5E1069800288BD102F052F881B20598E3
:1029F0000180ECE104984D284BDB0498522848DC18
:102A00000498C10F02900818401041000298401A23
:102A100018D1069800280DD104984138C10F0290B2
:102A20000818C005000E019002F038F8010C059856
:102A30000180CCE10698012885D1059800883449A9
:102A40000880C4E1069800280DD104984138C10FD0
:102A500002900818C005000E019002F01FF881B224
:102A600005980180B3E10698012888D1284800889C
:102A70000004059909880843019004984138C10F62
:102A800002900818C005000E009001990DF016FF85
:102A90009DE10498532856DB0498582853DC049889
:102AA000C10F02900818401041000298401A1BD133
:102AB0000698002810D104984738C10F02900818D2
:102AC000C005000E009001F0FBFF019001F062FFD5
:102AD000010C059801807AE10698012889D10598B2
:102AE00000880B49088072E10698002812D10498EA
:102AF0004738C10F02900818C005000E009001F081
:102B0000DFFF019001F046FF81B2059801805EE190
:102B100004120020069801288BD1AE4800880004DA
:102B2000059909880843009010F0F8FB019004987B
:102B30004738C10F02900818C005000E0090019997
:102B40000DF0E8FE43E1049864281CDB04986D282E
:102B500019DC0698002808D104986438C0B20290A5
:102B600001F0C0FF0599088031E1069801288FD156
:102B700005980088029004986438C0B201900299C8
:102B80000DF0D8FE23E104986E284BDB04987328DF
:102B900048DC0498C10F02900818401041000298C8
:102BA000401A18D1069800280DD104986E38C10F2C
:102BB00002900818C005000E019001F0A7FF010C5B
:102BC0000598018003E10698012803D10598008843
:102BD00080490880FBE0069800280DD104986E38E3
:102BE000C10F02900818C005000E019001F08EFF81
:102BF00081B205980180EAE00698012811D1754854
:102C000000880004059909880843019004986E38EB
:102C1000C10F02900818C005000E009001990DF038
:102C2000BBFED4E00498A0281DDB0498A1281ADC80
:102C30000498C10F02900818401041000298401AF1
:102C400008D10698002804D101F022FF010C059854
:102C50000180BCE00698002804D101F019FF81B280
:102C600005980180B3E00498A2284BDB0498A728BC
:102C700048DC0498C10F02900818401041000298E7
:102C8000401A18D1069800280DD104989638C10F23
:102C900002900818C005000E019001F0FFFE010C23
:102CA0000598018093E00698012803D105980088D3
:102CB000484908808BE0069800280DD10498963882
:102CC000C10F02900818C005000E019001F0E6FE49
:102CD00081B2059801807AE00698012877D13D48B5
:102CE00000880004059909880843019004989638E3
:102CF000C10F02900818C005000E009001990DF058
:102D0000DDFD64E00498A82854DB0498AD2851DC6C
:102D10000498C10F02900818401041000298401A10
:102D20001BD10698002810D104989C38C10F02903E
:102D30000818C005000E009001F0C2FE019001F0DD
:102D400029FE010C0598018041E0069801283ED13A
:102D5000059800881F49088039E00698002810D19E
:102D600004989C38C10F02900818C005000E00900E
:102D700001F0A6FE019001F00DFE81B205980180E0
:102D800025E00698012822D1124800880004059900
:102D900009880843009010F0C1FA019004989C380B
:102DA000C10F02900818C005000E009001990DF0A7
:102DB000B1FD0CE00698002803D1002105980180A0
:102DC00005E00698012802D100210598018007B08E
:102DD00000BD00000412002010B58C00034608332B
:102DE0001A5102290AD14369002B01D00024446101
:102DF0008369002B11D0002484610EE0042905D1E1
:102E00000369002B09D00024046106E0032904D1E2
:102E10000369002B01D00024046110BD70B5044685
:102E200060688047054620780007000F002802DD13
:102E30006088401C60806078C006C00FA8421CD12A
:102E400060780007000F082809DA6078000900019F
:102E50006178491C0907090F0843607011E0607828
:102E60000007000F08280CDB20780009052808D18E
:102E70002078F0218843207003E060780009000189
:102E8000607020780007000F030010F021FC05049B
:102E9000164B7EBBF00020780009002807D120786F
:102EA00000090001401C20700020608004E02078B0
:102EB000F021884350302070D9E060880F2830DB43
:102EC0002078F0218843103020706078C006C00F51
:102ED000A84217D1207800098100204608304058C8
:102EE000002807D020780009820020460830815849
:102EF0002046884700206080207800090001801C5F
:102F000020700EE020780009000120702078F02168
:102F1000884350302070E069002802D02046E169E3
:102F20008847A4E06078C006C00FA8421DD1608821
:102F300096280ADB2069002807D02069002802D0E3
:102F400020462169884700206080207800090328F6
:102F500005D1207800090001801C207014E0207841
:102F600000090001C01C20700EE02078000900015B
:102F700020702078F021884350302070E0690028CC
:102F800002D02046E169884771E060887D21C90050
:102F9000884231DB2078F02188433030207060781F
:102FA000C006C00FA84217D1207800098100204632
:102FB00008304058002807D02078000982002046B9
:102FC0000830815820468847207800090001001DFC
:102FD00020700020608014E020780009000120703B
:102FE0002078F021884350302070E069002808D014
:102FF0002046E169884704E0207800090001801C30
:10300000207034E06078C006C00FA8421FD16088ED
:1030100096280ADBA069002807D0A069002802D002
:103020002046A169884700206080A069002802D15D
:103030002069002805D1207800090001001D2070BA
:1030400014E0207800090001801C20700EE0207838
:103050000009000120702078F02188435030207052
:10306000E069002802D02046E169884700BF00BF20
:1030700070BD000070B501F005FDC9490968401A2E
:10308000C84988427DD9C848007801287AD10020F3
:10309000C549087001F046FD04463721FFF7EAF8FC
:1030A000012001F03FFD04463821FFF7E3F800203E
:1030B00001F02CFD04463921FFF7DCF8012001F076
:1030C00025FD04463A21FFF7D5F8022001F01EFD48
:1030D00004463B21FFF7CEF801F0ECFC04463C210E
:1030E000FFF7C8F8002001F0D9FC04463D21FFF7A6
:1030F000C1F8012001F0D2FC04463E21FFF7BAF8E6
:10310000022001F0CBFC04463F21FFF7B3F8032077
:1031100001F0C4FC04464021FFF7ACF8042001F0A4
:10312000BDFC04464121FFF7A5F8052001F0B6FCDF
:1031300004464221FFF79EF8062001F0AFFC04464A
:103140004321FFF797F8072001F0A8FC044644212B
:10315000FFF790F8082001F0A1FC04464521FFF795
:1031600089F8092001F09AFC04464621FFF782F80D
:103170000A2001F093FC04464721FFF77BF80B205F
:1031800001E00BE106E101F089FC04464821FFF76C
:1031900071F80C2001F082FC04464921FFF76AF81F
:1031A0000D2001F07BFC04464A21FFF763F80E2056
:1031B00001F074FC04464B21FFF75CF8002001F09D
:1031C0007FFC054601F0E6FB04464C21FFF752F870
:1031D000012001F075FC054601F0DCFB04464D21A1
:1031E000FFF748F8022001F06BFC054601F0D2FB26
:1031F00004464E21FFF73EF8032001F061FC05462E
:1032000001F0C8FB04464F21FFF734F8042001F019
:1032100057FC054601F0BEFB04465021FFF72AF893
:10322000052001F04DFC054601F0B4FB0446512198
:10323000FFF720F8062001F043FC054601F0AAFB49
:1032400004465221FFF716F8072001F039FC054625
:1032500001F0A0FB04465321FFF70CF8082001F011
:103260002FFC054601F096FB04465421FFF702F8B7
:10327000092001F025FC054601F08CFB0446552190
:10328000FEF7F8FF0A2001F01BFC054601F082FB67
:1032900004465621FEF7EEFF0B2001F011FC054617
:1032A00001F078FB04465721FEF7E4FF0C2001F003
:1032B00007FC054601F06EFB04465821FEF7DAFFD5
:1032C0000D2001F0FDFB054601F064FB0446592189
:1032D000FEF7D0FF0E2001F0F3FB054601F05AFB8C
:1032E00004465A21FEF7C6FF002001F005FC044603
:1032F0005B21FEF7BFFF012001F0FEFB04465C21CD
:10330000FEF7B8FF002001F0EDFB04466421FEF754
:10331000B1FF012001F0E6FB04466521FEF7AAFF9C
:10332000022001F0DFFB04466621FEF7A3FF032025
:1033300001F0D8FB04466721FEF79CFF042001F052
:10334000D1FB04466821FEF795FF052001F0CAFB7A
:1033500004466921FEF78EFF062001F0C3FB0446F8
:103360006A21FEF787FF072001F0BCFB04466B21B2
:10337000FEF780FF082001F0B5FB04466C21FEF744
:1033800079FF092001F0AEFB04466D21FEF772FFC4
:10339000FEF7F6FC01F076FB0149086070BD000005
:1033A0006C120020B80B00006912002010B51A48FA
:1033B0001A4908601A491948C1600720174948602E
:1033C000002116480161816041618021816103F023
:1033D00015FB002801D000BFFEE7702011490860EE
:1033E0000220886000200861C860886148614860E8
:1033F00000220A4803F096FB002801D000BFFEE738
:10340000064803F018FC0021044803F031FC0028B2
:1034100001D000BFFEE710BD00040040C016002030
:1034200027230000001700200149096848637047FE
:10343000C0160020F0B587B00446002700BF7D20ED
:103440004001201A84B212490888FDF7A6FC0391B6
:1034500002902046FDF7A1FC05460E480CC8284600
:10346000FDF79EFC01910090039B029AFDF7BEF9C7
:10347000059104900599049810F0AAF90546FDF706
:103480003FFC87B204480068476307B0F0BD000006
:103490005812002060120020C016002070B50026CF
:1034A0003920FEF7D9FE0B4908803B20FEF7D4FEF9
:1034B00008494880084640880988401A86B2304644
:1034C000FDF76BFC04460022034BFDF7BFF9034AEE
:1034D00003C270BD581200200040CF40601200208F
:1034E00001B588B008980790FD4800788021084011
:1034F00000287DD1FB48007860218843F949087095
:10350000F94800891223A02200210090162004F01F
:1035100019FAF648007800282ED1F4480078010105
:10352000079810300818007A0121102200920191AA
:103530000290ED4840890690EB484089059002468C
:103540004A20069B04F0D2FEE84800780101079863
:1035500010300818407A0121102200920191029047
:10356000E14840890690E0484089059002465A208B
:10357000069B04F0BBFE27E0DC480078012823D13D
:103580000122DA48007801010798103008184078C5
:10359000D5494989029200910190D348408906900B
:1035A000D24800780101079810300818406805904B
:1035B000CE480078010107981030405C049001214A
:1035C000069B059A04F06EFFC748C0895023A022CD
:1035D00012210090162004F0B5F9C44800780028A4
:1035E00026D137200021102200920191029000E0A4
:1035F00090E0BD48C0890690BB488089059002468E
:1036000038214A20069B04F071FE38200021102248
:10361000009201910290B448C0890690B248808916
:103620000590024638215A20069B04F05FFE13E005
:10363000AE48007801280FD100211022AA48C08985
:10364000019202910090A84880890346A8A23821DF
:103650000690462004F026FFA3488089492338229B
:1036600036210090252004F049F93F200021102246
:103670000092019102909C48C08906909A488089E6
:103680000590024638212720069B04F02FFE96481D
:10369000808949238E22362100907B2004F02EF968
:1036A0004020002110220092019102908E48C08992
:1036B00006908D4880890590024638217D20069B22
:1036C00004F014FE002007F0B7FB012205212020A2
:1036D00003F02EFF01220521104603F029FF0122ED
:1036E0000521900203F024FF00207D4988703B20D3
:1036F000FEF7B2FD7A49888001217948C170012026
:103700007D4908707D49087075480078802108431C
:103710007349087072480078C021084080287DD124
:1037200001221146104603F003FF002835D06D48F2
:103730000078602188436B49087069488088801C44
:103740006F49884216DC66488088801C64498880FE
:1037500001216348C17000780221884360490870E4
:1037600008460078012108435D49087001F08AF994
:103770005B4988653F200021102200920191029050
:103780005948808906905848C089059002463821DA
:103790002720069B04F0AAFD1EE001220521104609
:1037A00003F0C6FE002817D04D48007840084000BE
:1037B0004B4908703F200021102200920191029095
:1037C0004948C089069048488089059002463821BA
:1037D0002720069B04F08AFD01221146900203F087
:1037E000A7FE002835D03F480078602188433D4936
:1037F00008703B488088801EC82817DB38488088BE
:10380000801E3749888001213548C170007888437F
:103810003349087008460078022100E065E108435A
:103820002F49087001F02EF92D49886540200021AC
:1038300010220092019102902B48808906902A481C
:10384000C0890590024638217D20069B04F04EFD7C
:103850001EE001220521900203F06AFE002817D025
:103860001F480078022188431D490870402000212C
:1038700010220092019102901B48C08906901A48BC
:1038800080890590024638217D20069B04F02EFD9C
:10389000134800788007800F00284CD001F0F2F820
:1038A0000F49896D401A7D21C900884243D90C48CF
:1038B0000078C007C00F002824D009488088323023
:1038C0000F49884204DC06488088323004498880E9
:1038D00003480078400840000149087028E00000D3
:1038E00018130020C611002002130020C811002068
:1038F000454E544552000000C4110020C51100205F
:1039000028230000894800780221084000280FD0B1
:10391000864880883238C82804DB8448808832385A
:103920008249888081480078022188437F49087055
:1039300001217E48C17001221146202003F0F8FDCC
:10394000002849D07A480078602188437849087077
:1039500076488078802108437449887075480078DB
:10396000002824D1372000211022009201910290DA
:103970007148808906907048C089059002463821B8
:103980004A20069B04F0B2FC38200021102200924D
:10399000019102906848808906906748C089059027
:1039A000024638215A20069B04F0A0FC7EE06148C4
:1039B000007801287AD1002110225F488089019285
:1039C000029100905C48C08903465C4A3821069009
:1039D000462004F067FD69E001220321202003F066
:1039E000A7FD002806D00020FFF71EFD0120544946
:1039F00008705BE001220521202003F099FD0028DA
:103A000054D04A4880788021084000284BD047484D
:103A1000007840210843454908704648007800284E
:103A200024D13720002110220092019102904248B7
:103A3000C0890690404880890590024638214A2076
:103A4000069B04F053FC38200021102200920191C3
:103A500002903948C089069037488089059002460F
:103A600038215A20069B04F041FC13E031480078CD
:103A700001280FD1002110222F48C0890192029104
:103A800000902D48808903462C4A38210690462014
:103A900004F008FD0021012008F0D8FA00F0F2FF40
:103AA0002249C86402E00020204988701F48C0787D
:103AB00000281AD0012218231F48C0891E4989896D
:103AC00002930392009101901848808804230246D3
:103AD00019210690432004F095FC14488088069034
:103AE000FFF7A2FC00211148C17010480078402166
:103AF0000840002818D000F0C5FF0C49C96C401AD6
:103B00007D21C90088420FD90020FFF78DFC0748AE
:103B100080883B210690FEF7ADFBFEF731F9FFF7F9
:103B2000BDFC01200649087009B000BD1813002033
:103B3000C6110020C811002002130020F038000830
:103B4000CA11002001B588B008980790FD48007898
:103B50008021084000287DD1FB48007860218843FF
:103B6000F9490870F94800891223A0220021009029
:103B7000162003F0E7FEF648007800282ED1F4481E
:103B800000780101079810300818007A01211022EE
:103B9000009201910290ED4840890690EB484089DF
:103BA000059002464A20069B04F0A0FBE8480078F6
:103BB0000101079810300818407A01211022009264
:103BC00001910290E14840890690E04840890590C3
:103BD00002465A20069B04F089FB27E0DC48007867
:103BE000012823D10122DA4800780101079810301A
:103BF00008184078D5494989029200910190D3482C
:103C000040890690D24800780101079810300818C2
:103C100040680590CE480078010107981030405C5C
:103C200004900121069B059A04F03CFCC748C0891A
:103C30005023A02212210090162003F083FEC448D6
:103C40000078002826D1372000211022009201910F
:103C5000029000E090E0BD48C0890690BB48808992
:103C60000590024638214A20069B04F03FFB38208D
:103C700000211022009201910290B448C089069060
:103C8000B24880890590024638215A20069B04F0EC
:103C90002DFB13E0AE48007801280FD1002110223F
:103CA000AA48C089019202910090A84880890346E1
:103CB000A8A238210690462004F0F4FBA34880898E
:103CC0004923382236210090252003F017FE3F209B
:103CD000002110220092019102909C48C089069018
:103CE0009A4880890590024638212720069B04F0D7
:103CF000FDFA9648808949238E22362100907B2048
:103D000003F0FCFD4020002110220092019102905E
:103D10008E48C08906908D488089059002463821DA
:103D20007D20069B04F0E2FA002007F085F80122CE
:103D30000521202003F0FCFB01220521104603F0A1
:103D4000F7FB01220521900203F0F2FB00207D49E0
:103D500088703920FEF780FA7A49888001217948F5
:103D6000C17001207D4908707D4908707548007850
:103D7000802108437349087072480078C0210840C8
:103D800080287DD101221146104603F0D1FB002886
:103D900035D06D480078602188436B4908706948C8
:103DA0008088801C6F49884216DC66488088801CA9
:103DB0006449888001216348C170007802218843EA
:103DC0006049087008460078012108435D49087081
:103DD00000F058FE5B4988653F20002110220092C8
:103DE000019102905948808906905848C0890590F1
:103DF000024638212720069B04F078FA1EE00122B3
:103E00000521104603F094FB002817D04D48007898
:103E1000400840004B4908703F20002110220092CA
:103E2000019102904948C0890690484880890590D0
:103E3000024638212720069B04F058FA0122114639
:103E4000900203F075FB002835D03F4800786021D0
:103E500088433D4908703B488088801E002817D45D
:103E600038488088801E3749888001213548C170D4
:103E7000007888433349087008460078022100E042
:103E800065E108432F49087000F0FCFD2D49886565
:103E90004020002110220092019102902B4880893D
:103EA00006902A48C0890590024638217D20069B4D
:103EB00004F01CFA1EE001220521900203F038FBF9
:103EC000002817D01F480078022188431D49087038
:103ED0004020002110220092019102901B48C089CD
:103EE00006901A4880890590024638217D20069B5D
:103EF00004F0FCF9134800788007800F00284CD0AC
:103F000000F0C0FD0F49896D401A7D21C90088422B
:103F100043D90C480078C007C00F002824D00948B6
:103F2000808832300F49884204DC0648808832306D
:103F3000044988800348007840084000014908701F
:103F400028E0000018130020C611002002130020F2
:103F5000C8110020454E544552000000C4110020F5
:103F6000C51100202823000089480078022108405C
:103F700000280FD0864880883238C82804DB84485F
:103F800080883238824988808148007802218843BD
:103F90007F49087001217E48C1700122114620200E
:103FA00003F0C6FA002849D07A4800786021884397
:103FB0007849087076488078802108437449887071
:103FC00075480078002824D1372000211022009263
:103FD000019102907148808906907048C0890590CF
:103FE000024638214A20069B04F080F9382000213F
:103FF00010220092019102906848808906906748DB
:10400000C0890590024638215A20069B04F06EF9BB
:104010007EE06148007801287AD1002110225F48B3
:1040200080890192029100905C48C08903465C4AF5
:1040300038210690462004F035FA69E00122032178
:10404000202003F075FA002806D00020FFF7ECF9D5
:104050000120544908705BE001220521202003F073
:1040600067FA002854D04A48807880210840002808
:104070004BD04748007840210843454908704648DE
:104080000078002824D137200021102200920191CD
:1040900002904248C08906904048808905900246B7
:1040A00038214A20069B04F021F9382000211022F3
:1040B0000092019102903948C08906903748808962
:1040C0000590024638215A20069B04F00FF913E0B0
:1040D0003148007801280FD1002110222F48C089D3
:1040E0000192029100902D48808903462C4A382184
:1040F0000690462004F0D6F90021012007F0A6FF23
:1041000000F0C0FC2249C86402E000202049887009
:104110001F48C07800281AD0012218231F48C089E0
:104120001E49898902930392009101901848808862
:104130000423024619210690432004F063F9144831
:1041400080880690FFF770F900211148C17010486F
:10415000007840210840002818D000F093FC0C495A
:10416000C96C401A7D21C90088420FD90020FFF791
:104170005BF90748808839210690FEF77BF8FDF748
:10418000FFFDFFF78BF901200649087009B000BD5B
:1041900018130020C6110020C811002002130020AF
:1041A000543F0008CA110020002108E0182102E055
:1041B00000BF4A1ED1B20029FAD1421E90B2002897
:1041C000F4D1704710B5022800DB10BD002908D0DB
:1041D0004201074B9A5C80231A434301044CE2548A
:1041E00003E000224301024CE25400BFEDE700006F
:1041F000A000002010B50446022C00DB10BD6001B9
:104200000A49085C10210840002806D06001074ACE
:104210008018C1690120884705E06001034A8018C1
:10422000C1690020884700BFE8E70000A000002027
:1042300070B50025002464E16001B449085C802168
:10424000084000287AD0002000F0F4FB0546600109
:10425000AE4940184078002804D001282AD002280E
:104260006DD14AE06001A949401840686101A74A40
:10427000891809694018A84207DA60011146085CEC
:10428000402108436101505413E060019F494018E8
:104290004068A8420DDD6001085C7021884361011F
:1042A0009A4A505460011146085C0121084361019B
:1042B0005054B6E06001954940188068A84207DA7A
:1042C0006001085C402108436101904A505413E0AA
:1042D00060018E494018C068A8420DDD6001085C8D
:1042E000702188436101894A505460011146085C7D
:1042F000012108436101505493E060018349085C47
:1043000008210840002842D1600180494018806897
:1043100061017E4A891809694018A84210DA6001D3
:104320001146085C702188436101505460011146B8
:10433000085C092108436101505428E07AE06FE0ED
:10434000600172494018C0686101704A89180969A2
:104350004018A84207DA60011146085C4021084372
:104360006101505413E0600168494018C068A842D8
:104370000DDD6001085C782188436101634A505477
:1043800060011146085C012108436101505460013D
:104390005E49085C08210840002840D060015B4964
:1043A00040188068A8420CDD60014018C068A8422F
:1043B00007DA6001085C402108436101534A505408
:1043C0002DE0600151494018806861014F4A891809
:1043D00009694018A8420EDA60011146085C702194
:1043E00088436101505460011146085C0121084373
:1043F0006101505413E0600144494018C068A8426C
:104400000DDD6001085C7821884361013F4A50540A
:1044100060011146085C012108436101505400E02D
:1044200000BF00BF60013949085C802188436101F9
:10443000364A505460013549085C10210840002874
:1044400048D160013149085C2021084000281BD177
:1044500060012E49085C40210840002814D060010A
:104460002A49085C202108436101284A5054600110
:104470001146085C402188436101505400F002FB62
:104480006101224A8918886160012049085C202165
:10449000084000281ED000F0F5FA61011B4A891877
:1044A0008969401A610189184969884212D96001F5
:1044B0001146085C10210843610150546001114607
:1044C000085C800880006101505460018018C16957
:1044D0000120884760010D49085C8007800F012892
:1044E0000DD160010A468018C1690020884760012B
:1044F0000649085C022108436101044A5054601CCB
:10450000C4B2022C00DA97E670BD0000A0000020C3
:1045100010B51820FDF7A0FE2A4948701920FDF7B4
:104520009BFE284948601A20FDF796FE25498860C1
:104530001B20FDF791FE2349C8601C20FDF78CFE6F
:10454000204908611D20FDF787FE1E4948611E2095
:10455000FDF782FE002803D101201A49887002E08D
:104560000020184988701F20FDF776FEC1B215485B
:10457000203041702020FDF76FFE12494862212053
:10458000FDF76AFE0F4988622220FDF765FE0D499E
:10459000C8622320FDF760FE0A4908632420FDF766
:1045A0005BFE084948632520FDF756FE002804D12C
:1045B000012104482030817003E0002101482030AF
:1045C000817010BDA000002070B504460D460A4859
:1045D00000780821084000280CD00848806D208011
:1045E000064858308088288088210448FBF792FECE
:1045F000012070BD0020FCE7C61100201813002028
:10460000F8B50025002600275C4800788021084086
:1046100000280CD10620FDF71FFE05B20120FDF792
:1046200081F856480078C02108435449087053481F
:10463000007840210840002873D0504949784A004A
:104640004E49091D5018FDF78FF9002831D0002D73
:1046500010DA4A48407841004848001D415AE84372
:10466000401C081881B24548407842004348001D6C
:1046700081520DE04148407841004048001D405AB9
:10468000401B81B23D48407842003C48001D8152A9
:104690003A48016D407842003848001D805A081899
:1046A0003649086508464078401C4870012000F0F3
:1046B00007FD3248407812285FDB304886888788BB
:1046C000012416E061002D48001D405AB84204DD67
:1046D00061002A48001D475A09E061002748001D73
:1046E000405AB04203DA61002448001D465A601C5B
:1046F000C4B2122CE6DB2148006DC01B801B1F4991
:1047000008650846006D00110865002413E01B4988
:1047100063000A6D091DC95A501A002802DB0146C0
:1047200001E02AE04142022903DD0120134988709B
:1047300003E0601CC4B2122CE9DB00BF0F48807894
:10474000002815D10D480078402188430B49087096
:104750000846006D88650846016D0948FBF7E6FDCF
:104760000649C865074800780821084305490870CC
:1047700000200249086548708870F8BD18130020B1
:1047800050FB4A00C6110020002006494860064838
:10479000406904210843044948610448C10608608F
:1047A00070470000301C00200020024021433412DA
:1047B0000021054A51600549496902221143034A13
:1047C0005161FF2101607047301C00200020024031
:1047D000F0B502460B46002014461D46104E766981
:1047E00001273E430E4F7E6100BFEFF31086314636
:1047F00072B60EE02E6826602D1D241D461CF0B2F8
:104800003F2806D1064E76690127FF043E43044F38
:104810007E614028EED300BF81F3108800BFF0BD59
:1048200000200240044949690122D2021143024A90
:104830005161FF21016070470020024070B50446BD
:1048400000F0E6FF051905E000F0E2FFA84201D301
:10485000032070BD06480069012109040840000CCE
:104860000028F1D10348024908610020F1E7000067
:104870000020024011800000FEB505460F46164696
:1048800000200190002E00DC01263C2E00DD3C269D
:10489000012E0DDC002407E0F02068431E4940187B
:1048A000A1004750601C84B23C2CF5DB3846FEBDAD
:1048B00000240EE0F020684317494118601C800076
:1048C0000958F0206843144A8018A2008150601CE7
:1048D00084B23B2CEEDBF02068430F494018803057
:1048E000C76600240DE0F02068430B4A80183B2285
:1048F000121B9200815801980FF01EF80190601C65
:1049000084B2B442EFDB3046FCF79AFC01460090DB
:104910000198FCF793FBCAE73014002070B586B00D
:1049200000200590124C134E134D00F0EFFD0220B5
:104930000090204601900420029005A9684600F0EE
:10494000D5FB002801D000BFFEE70AE02A46214639
:10495000012000F001FD002803D1FF340134FF35B0
:104960000135B442F2D300F0E5FC06B070BD0000A2
:1049700000F0010800F401081C17002030B50346C0
:10498000002004E084000C5985005C51401C9042DA
:10499000F8D330BD7047000000B587B0142102A8DD
:1049A000FBF7B8FC00BF2148406B012108431F49B9
:1049B00048630846406BC007C00F019000BF00BFAE
:1049C00000BF0846406B0221084318494863084667
:1049D000406B02210840019000BF00BF03200290FD
:1049E00001200390022004900320059002A90520D5
:1049F000000700F025FE002203210520000700F03B
:104A000001FF032000020290012003900490032084
:104A1000059002A9064800F013FE012203210902B5
:104A2000034800F0EFFE07B000BD00000010024098
:104A3000000400500146002902D00848C0697047B0
:104A40000648C07810221040002804D0034840696E
:104A5000C043401CF3E701484069F0E748000020EC
:104A6000002801D0002900D17047044A1288028032
:104A7000034A12880A8000BFF6E700001C000020ED
:104A80001E000020014800687047000070120020DE
:104A90000148006870470000F811002001460F2906
:104AA00001DB002070478800014A1058FAE7000037
:104AB000AC1300200148007870470000131200205A
:104AC00001460F2901DB002070478800014A105879
:104AD000FAE70000F4130020014800687047000066
:104AE0000C12002001460A2901DB00207047014812
:104AF000405CFBE7A01300200146022901DB0020F7
:104B000070470148405CFBE7101200200146032972
:104B100001DB002070478800014A1058FAE70000C6
:104B2000E81300200146022901DB002070474800FD
:104B3000014A105AFAE700002012002001480068DC
:104B40007047000008120020F8B504460026002037
:104B5000009000BF2820005D012801D10220F8BD8F
:104B600001212820015500BF2046FCF748FE0646DB
:104B7000002E75D1E06A1121090288430221084301
:104B8000E062480300F0A2FF074639463848006853
:104B9000FBF7C2FB4000009002E00098401E00902E
:104BA00000980028F9D120688068C007C00F00284D
:104BB0000CD0E06A0221884310210843E06200BF64
:104BC00000212820015500BF0120C8E72068806827
:104BD000082108432168886000F01AFE054611E0AC
:104BE00000F016FE401B0A280CD9E06A0221884317
:104BF00010210843E06200BF00212820015500BFBA
:104C00000120ACE720688068082108400028E7D12F
:104C100020688068042108432168886000F0F8FD5E
:104C2000054611E000F0F4FD401B0A280CD9E06AAB
:104C30000221884310210843E06200BF00212820A0
:104C4000015500BF01208AE72068806804210840E0
:104C50000028E7D1E06A0221884301210843E0628D
:104C600000BF00212820015500BF304677E7000033
:104C700078120020F8B505460C460026002000906A
:104C800000BF2820405D012801D10220F8BD01218C
:104C90002820415500BF6068072812D22868806B21
:104CA0002179491E8A008A181F2191408843227960
:104CB000521E9300D21821689140084329688863E6
:104CC00027E060680D2812D22868406B2179C91F3F
:104CD0008A008A181F21914088432279D21F9300AD
:104CE000D2182168914008432968486311E0286878
:104CF000006B21790D398A008A181F219140884361
:104D000022790D3A9300D21821689140084329680E
:104D100008632068142812D32868C06821781439E1
:104D20004A008A180721914088432278143A530098
:104D3000D218A168914008432968C86025E020681E
:104D40000A2812D32868006921780A394A008A188B
:104D500007219140884322780A3A5300D218A1686B
:104D600091400843296808610FE02868406921786C
:104D70004A008A1807219140884322785300D218AC
:104D8000A16891400843296848612068102802D032
:104D90002068112827D11749286888421ED1286821
:104DA00080680121C905084000281CD12868806856
:104DB0000843296888602068102814D10E490F48DC
:104DC0000068FBF7A9FA0A214843009002E0009826
:104DD000401E009000980028F9D104E0E86A2021E4
:104DE0000843E862012600BF00212820415500BF8A
:104DF00030464BE70024014040420F00781200206B
:104E000070B504460025002C01D1012070BDE06A78
:104E100002210843E0622046FCF7F1FC0546002D24
:104E200065D12068006D1F20C0432168086020689C
:104E300040683249084021684860206880683049ED
:104E40000840216888602068C068000B0003216862
:104E5000C86020680069800F8007216808612068A9
:104E60004069800F80072168486120688069000BD5
:104E70000003216888612068C069000B0003216875
:104E8000C8612068006A000B00032168086220687E
:104E9000406A000B0003216848622068806A000BAA
:104EA0000003216888622068C06A000B0003216843
:104EB000C8622068006B000E000621680863206845
:104EC000406B800F8007216848632068806B0D4924
:104ED0000840216888632068C06B000E00062168C6
:104EE000C863204600F0C6F800202063E06200BFDF
:104EF00000212820015500BF284687E700003FDC3D
:104F0000F00601F10000E0C1F8B5044600270025D5
:104F1000002600200090002C01D10120F8BDE0689F
:104F2000002802D1207E002800D000BF207E00286B
:104F300000D000BFE06A002806D1206300212820AD
:104F40000155204600F098F82046FCF758FC07462B
:104F5000E06A1021084000287ED1002F7CD1E06A51
:104F600011210902884302210843E062216AA068F6
:104F70000843217C490008430643FF210131E068D2
:104F8000884202D0E068012802D1FF20013000E011
:104F90000020616808430543207E012812D1207C4F
:104FA000002807D1E069401E40030121C9020843DF
:104FB000054307E0E06A20210843E062206B0121FD
:104FC0000843206320684068274908402843216837
:104FD000486020688068254908403043216888601F
:104FE000FF210131E068884202D0E068012802D147
:104FF000FF20013000E00020FF210131884202D073
:10500000207E012803D1A08A401E00050090206860
:10501000006B0F2109058843009908432168086344
:105020002068806812490840B04209D100202063FE
:10503000E06A0221884301210843E06211E00BE0AD
:10504000E06A0221884310210843E062206B0121BD
:1050500008432063012704E0E06A10210843E0626E
:10506000012738465AE70000FF16FFFCFDF7E1FF75
:10507000FE0E1FF17047000010B586B004461421E3
:1050800001A8FBF747F900BF0C48406B012108431A
:105090000A4948630846406BC007C00F009000BF34
:1050A00000BFE0200190032002900020039001A99E
:1050B0000520000700F0C4FA06B010BD0010024041
:1050C00070B5044600F0A4FB06462546681C00287F
:1050D00002D0054800682D1800BF00F099FB801B26
:1050E000A842FAD370BD000084120020F8B504462F
:1050F0000E460127002500BF89480078012801D10C
:105100000220F8BD01208649087000BF00BF854914
:105110004968072252031140480B834909688200FD
:10512000824B9A581278914244D17F494968820053
:105130009A581268D201D20D91423BD17A4909693D
:1051400082009A5812881204120E914232D1764986
:10515000896882009A58127A91422BD17249C968A3
:1051600082009A5892685201520D914222D16E49A2
:10517000496982009A581269D203D20B914219D11F
:105180006949896982009A589269D203D20B914287
:1051900010D16549C96982009A58128C92B2914225
:1051A00008D16149096A82009A58126A9200920CE9
:1051B000914244D000BF81005C4A515809785A4A54
:1051C00011608100594A51580968C901C90D564AF0
:1051D00051608100554A515809880904090E524A04
:1051E00011618100514A5158097A4F4A91608100FA
:1051F0004E4A515889684901490D4B4AD160810096
:105200004A4A51580969C903C90B474A516181008B
:10521000464A51588969C903C90B434A91618100C3
:10522000424A5158098C89B23F4AD16181003F4AB4
:105230005158096A8900890C3B4A116200BF00BFBE
:105240002068012813D17D20C000FFF7F7FA00285D
:105250005FD1FFF799FA7D20C000FFF7EFFA07460C
:1052600033484069042188433149486151E020684E
:10527000022824D17D20C000FFF7E0FA002848D1A1
:10528000401E3060656813E02846FFF791FA7D20E4
:10529000C000FFF7D3FA074625484069022188433A
:1052A00023494861002F01D0356007E0FF35013503
:1052B000A068000261684018A842E5D829E020688B
:1052C000032826D17D20C000FFF7B8FA002820D19E
:1052D000401E3060E56815E02846FFF7A3FA7D2000
:1052E000C000FFF7ABFA0746114840690121C90227
:1052F00088430F494861002F01D0356008E0012044
:1053000040032D1820694003E1684018A842E3D803
:1053100000BF00BF00200249087000BF3846F0E619
:10532000301C0020001002400021024058C8010833
:1053300000200240012007494969C2071143054A7C
:10534000516111464969C90FC907002900D00020E1
:105350007047000000200240F8B507460C4616468C
:10536000012500BF64480078012801D10220F8BD62
:1053700001206149087000BF00BF604949680722E9
:1053800052031140480B5E49096882005D4B9A58F0
:105390001278914244D15A49496882009A58126859
:1053A000D201D20D91423BD15549096982009A58E8
:1053B00012881204120E914232D15149896882003A
:1053C0009A58127A91422BD14D49C96882009A5855
:1053D00092685201520D914222D149494969820095
:1053E0009A581269D203D20B914219D14449896962
:1053F00082009A589269D203D20B914210D140494F
:10540000C96982009A58128C92B2914208D13C49E3
:10541000096A82009A58126A9200920C914244D012
:1054200000BF8100374A51580978354A1160810020
:10543000344A51580968C901C90D314A5160810087
:10544000304A515809880904090E2D4A116181001A
:105450002C4A5158097A2A4A91608100294A5158A8
:1054600089684901490D264AD1608100254A515871
:105470000969C903C90B224A51618100214A515867
:105480008969C903C90B1E4A916181001D4A51589F
:10549000098C89B21A4AD16181001A4A5158096AA5
:1054A0008900890C164A116200BF00BFE0B20028D3
:1054B00001D001205BE77D20C000FFF7BFF9054662
:1054C000002D12D131462046FFF782F97D20C00021
:1054D000FFF7B4F905460C484069400840000A4906
:1054E0004861002D01D0284641E700BF0020024955
:1054F000087000BF28463AE7301C00200010024028
:105500000021024058C8010800200240002009493B
:105510004969C90FC90700290BD00749054A91609D
:105520000649916011464969C90FC907002900D091
:10553000012070470020024023016745AB89EFCD71
:10554000F0B502460B4600206EE001258540294655
:105550001940002967D0374D8608B600AC59850739
:10556000EE0E0F25B5402C4005252D07AA4201D18E
:1055700000250AE0304DAA4201D1012505E02F4D5A
:10558000AA4201D1022500E003258607F60EB540A8
:10559000A54222D1274D20352D688D43254E20363A
:1055A000356035466D688D437560224D603D2D68D0
:1055B0008D43204E603E356035466D688D43756085
:1055C0008507EE0E0F25B5402C461A4D8608B6000D
:1055D000AE59A6438708BF00EE5115684700032661
:1055E000BE4035431560C508AE0015462035AD599F
:1055F0004607F70E0F26BE40B543C608B60017464D
:105600002037BD51956847000326BE40B5439560DD
:10561000556801268640B5435560D5684700032686
:10562000BE40B543D560401C1D46C540002D8CD101
:10563000F0BD000060180240000400500008005057
:1056400070B503460022D0E0012696400C68344035
:10565000002C71D04D68022D02D04D68122D15D14D
:10566000D508AE001D462035A8595507EE0E0F256A
:10567000B5400646AE4330465607F60E0D69B540B6
:105680002843D508AD001E462036705118685600D4
:105690000325B5400646AE4330460D79AD07AD0F44
:1056A0005600B540284318604D68012D08D04D685C
:1056B000022D05D04D68112D02D04D68122D18D144
:1056C000986856000325B5400646AE43304656005E
:1056D000CD68B54028439860586801259540064636
:1056E000AE43304610264D6835402D09954028437D
:1056F0005860D86856000325B5400646AE4330468C
:1057000056008D68B5402843D860012636074D689D
:105710003540B54268D1384D9608B600A85995076E
:10572000EE0E0F25B5400646AE43304605252D0743
:10573000AB4202D100250BE056E0304DAB4201D127
:10574000012505E02E4DAB4201D1022500E00325E5
:105750009607F60EB5402843274D9608B600A85187
:10576000254D203528680546A543284601263604E0
:105770004D683540B54202D10546254328461E4DA9
:105780002035286068680546A5432846012676042A
:105790004D683540B54202D1054625432846164D91
:1057A00020356860144D603D28680546A5432846AD
:1057B000012636054D683540B54202D105462543E0
:1057C00028460D4D603D286068680546A54328467B
:1057D000012676054D683540B54202D10546254380
:1057E0002846054D603D6860521C0D68D540002D6F
:1057F00000D029E770BD000060180240000400508E
:1058000000080050002A01D0816100E081627047E9
:1058100001480068704700007C12002070B5044603
:10582000002C01D1012070BD0F48216808600F488D
:10583000216808602168606848602168A068886005
:10584000FFF7E6FF054606E0FFF7E2FF401B3028C2
:1058500001D90320E7E72068C0680028F4D1044894
:10586000216808600020DEE7CCCC00005555000020
:10587000AAAA0000034800680349096840180149C2
:10588000086070477C1200208412002010B50024AC
:10589000032000F009F8002801D0012401E000F005
:1058A00033F8204610BD0000F8B504460025134823
:1058B000006800281ED0114801687D20C000FAF75A
:1058C0002BFD074639460E480068FAF725FD0646C7
:1058D00001F078F800280BD1042C07D200222146D1
:1058E000401E00F041F80748046004E0012502E092
:1058F000012500E001252846F8BD000084120020A3
:10590000781200208012002008B500BF0E48006801
:10591000012108430C49086008460068C007C00F11
:10592000009000BF00BF00BF07484038C06B89052A
:10593000084305494039C8630846C06B090408405C
:10594000009000BF00BF08BD401002400146002982
:1059500005DBCB06DB0E01229A40024B1A6000BF2A
:105960007047000000E100E070B504460D461646A1
:10597000294620460DF0BAFE70BD000070B5044601
:105980000025002C01D101253AE0606800280ED1E5
:105990001C48006B022188431A4908630846406B83
:1059A00020218843174948630020A07220E06068E6
:1059B00001280ED11348006B402188431149086328
:1059C0000846406B402188430E4948630020A0727E
:1059D0000EE00C48006B0121C902884309490863A5
:1059E0000846406B80218843064948630020A07226
:1059F000204600F023F80020A07200BF607200BFB4
:105A0000284670BD0003014070B504460025002CF7
:105A100001D1012070BDA07A052801D10120F9E74C
:105A2000A07A002800D16072204600F008F8A07A21
:105A3000002801D10120A0722846EBE7704770478B
:105A400001460020002901D101203BE08A7A052A85
:105A500001D1012036E08A7A012A32D14A68002A2F
:105A60000ED1194A526B20231A43174B5A631A4618
:105A7000126B02231A43144B1A6304228A7221E028
:105A80004A68012A0ED1104A526B40231A430E4B2A
:105A90005A631A46126B40231A430B4B1A630422B3
:105AA0008A720FE0084A526B80231A43064B5A63EE
:105AB0001A46126BDB141A43034B1A6304228A72D0
:105AC00000E001207047000000030140F0B589B0FC
:105AD0000546002008901422E84902A8FAF73CFB8A
