:020000040800F2
:100000001020002091010008B7AA0008E161000853
:1000100000000000000000000000000000000000E0
:10002000000000000000000000000000B1FC00081B
:10003000000000000000000001FB0008E1010108D1
:10004000A3010008A3010008A3010008A301000800
:10005000A3010008A3010008A3010008A3010008F0
:10006000A3010008A3010008A3010008A3010008E0
:10007000A3010008A3010008A3010008A3010008D0
:10008000A3010008A3010008A3010008A3010008C0
:10009000A3010008A3010008A3010008A3010008B0
:1000A000A3010008A3010008A3010008A3010008A0
:1000B000B52A0108A3010008A3010008A301000854
:1000C00000F002F800F038F80CA030C80838241806
:1000D0002D18A246671EAB4654465D46AC4201D180
:1000E00000F02AF87E460F3E0FCCB646012633427A
:1000F00000D0FB1AA246AB4633431847F8C20100B2
:1001000018C301000023002400250026103A01D363
:1001100078C1FBD8520700D330C100D50B607047BF
:1001200010B5642902D100F0A1F810BD002010BD67
:100130001FB51FBD10B510BD01F0BAF91146FFF78C
:10014000F7FF12F0D9FE01F0D2F903B4FFF7F2FF86
:1001500003BC01F013FA000070B505460C461646C4
:1001600002E00FCC0FC5103E102EFAD2082E02D39B
:1001700003CC03C5083E042E07D301CC01C5361FAE
:1001800003E021782970641C6D1C761EF9D270BDC5
:100190000748804707480047FEE7FEE7FEE7FEE71F
:1001A000FEE7FEE704480549034A054B7047000097
:1001B00049030108C1000008101C00201020002085
:1001C000101C00200FB47CB50C0009AA009001D0CF
:1001D0000019401E094B7B4469460190089801F0C4
:1001E0005AF8002C054603D06946002001F066F855
:1001F00028467CBC08BC04B018470000ED10000085
:10020000F8B50E460446002020622046E168884783
:10021000002829D0252802D06268A16820E0E16882
:1002200020460027884705001ED028464138192857
:1002300002D80127FF022035324620462760294692
:10024000FFF76EFF002808D0012804D0F61DF6083D
:10025000F6000836D9E7361DD7E762682846A16858
:100260009047206A401CCFE7206AF8BDF7B500250B
:1002700075291068009914A611D0C046C046002800
:1002800002DA404211A608E0009909688A0701D500
:100290000FA602E0490704D50EA6012501E0C046DD
:1002A000C046009F0024243704E001F014F83031E8
:1002B0003955641C0028F8D12B4632462146009857
:1002C00000F08BFFFEBD0000000000002D000000CC
:1002D0002B0000002000000001E004C0091F0429D9
:1002E000FBD28B0701D50280801CC90700D00270A9
:1002F000704700290BD0C30702D00270401C491E72
:10030000022904D3830702D50280801C891EE3E7FB
:100310000022EEE70022DFE7002203098B422CD304
:10032000030A8B4211D300239C464EE003460B4345
:100330003CD4002243088B4231D303098B421CD3A7
:10034000030A8B4201D394463FE0C3098B4201D399
:10035000CB01C01A524183098B4201D38B01C01AD1
:10036000524143098B4201D34B01C01A5241030948
:100370008B4201D30B01C01A5241C3088B4201D3F7
:10038000CB00C01A524183088B4201D38B00C01AA4
:10039000524143088B4201D34B00C01A5241411ACB
:1003A00000D201465241104670475DE0CA0F00D0AE
:1003B0004942031000D34042534000229C460309A7
:1003C0008B422DD3030A8B4212D3FC22890112BA2D
:1003D000030A8B420CD3890192118B4208D3890105
:1003E00092118B4204D389013AD0921100E089091D
:1003F000C3098B4201D3CB01C01A524183098B42FE
:1004000001D38B01C01A524143098B4201D34B01E6
:10041000C01A524103098B4201D30B01C01A524149
:10042000C3088B4201D3CB00C01A524183088B42D0
:1004300001D38B00C01A5241D9D243088B4201D359
:100440004B00C01A5241411A00D201466346524144
:100450005B10104601D34042002B00D54942704743
:1004600063465B1000D3404201B50020C046C04641
:1004700002BD7047704770470246C80FC0078143EE
:100480004B0030B54B405B009B0D20D01923DB06A1
:10049000C91801231B05994220DB0324A407042566
:1004A0001346AB400BD3002B04D1EB0613409B004B
:1004B000E34204D401246407002312195941FF23A5
:1004C0001B0599420BD2C9000143500F09E0CB0232
:1004D00004D501430803024305D0054830BDFF2180
:1004E000C905084330BD084607210905884330BDCA
:1004F0000000C07FF0B50C46871A9C410D46861A55
:100500009D4103D2C01BA141D21963410D0D1F0DA6
:10051000C94EEC1BAE435CD07F057F0D0026002F3B
:1005200051D02D05AC46A943DD020123ED0A1B0580
:100530001D4320231B1B24D41746E7403818714164
:100540002F46E740CC199D402818314661410C0DDB
:1005500027D161449A4013D50023401C59415200D1
:100560000ED14008400001224B005205D34207D370
:1005700005204007C14201D5B04900E0B0493046EE
:10058000F0BD6B00002A00D001229A181F23203CE6
:100590001B1B01D5002302E0E540281871410C0D1A
:1005A000D7D0012424050919C407CD0740084908FC
:1005B000E40F28436144002CD5D00024401C614145
:1005C0009A40D0D1CDE76A05520DD9D1C90FC907DC
:1005D000D5E79C4D4E00002801D0012400E0002406
:1005E00034195F00002A01D0012600E00026BE1960
:1005F000954FAC420CD8AE420AD8B44206D0012581
:100600006D05EC42BCD010461946F0BD9942FCD0B5
:1006100000203946F0BDF0B51FB40C460F46811AD4
:100620009F412546861A9D4106D20125ED076F4060
:10063000401ABC4152187B41210D1E0D8D1BAC464A
:100640007D4D8D437ED075056D0D7CD00D05AE467C
:10065000AC431B031B0B794D52429D412023664640
:100660009B1B14D31746F74038180026009074419E
:1006700060462F460741E41900989D4028186641BE
:1006800016D4714671189A4025D5012320E093189D
:100690002A466A415200002B00D0521C1E23203EE5
:1006A0009B1B002B61DD3541EE1728186641E8D50C
:1006B000001876415B1C9A4000D3401C4B05F31890
:1006C0001524E34010D3002B52D071467118D30F7C
:1006D000C01802D3491C05B0F0BD0123DB079A42C4
:1006E000F9D140084000F6E701225205B21801D1C5
:1006F000002853D00123CC0ADB029943891E002A2B
:1007000008D1020C03D0020C0004103902E00246AA
:10071000002020390023550B05D112020823550B68
:1007200001D152010D23550C01D112011B1DD50C15
:1007300001D192009B1C150D01D152005B1C20259C
:10074000EE1A01E02CE022E00546F5401543984002
:10075000CA1AE10769181305C918002ABBDA032071
:1007600040070818C10FC9070FE071466118B2E7CA
:10077000F10740080843711071444A000CD001236E
:100780005B059A42A7D2C90FC9070020A3E7490514
:10079000490D26D1002001E00028F4D100219AE77C
:1007A000284D6600002801D0012100E000217118C9
:1007B0005F00002A01D0012600E00026BE19224F6A
:1007C000A94210D8AE420ED8B14208D001256D051D
:1007D000E94206D01946A802414010467BE79C42F8
:1007E00001D0214677E70020394674E710B50C4662
:1007F0005C4005D50124E4076340FFF70CFF10BD02
:10080000FFF778FE10BD30B40C465C4004D50124DF
:10081000E407634030BC6DE630BCFCE670B50124F3
:10082000E40761400D465D4002D4FFF763FE70BDF2
:100830006340FFF7F0FE70BDFF0700000000F0FF0F
:100840000000F07F0000E0FF0000F87FF0B5F94DF8
:100850000C091E092C402E402F468BB0A7437DD09B
:10086000B543FCD0002E7AD0002CFCD00D465D4064
:10087000ED0F2543AC1BFF25AD0464190894C50298
:10088000440DC9022143500DDC0204430120C0077E
:1008900001430443D2020191200C110C00958C46B7
:1008A000010423468B430A9161460904E24D8A43C1
:1008B0000991010A7D4449198039097805464D435B
:1008C00001266D18F605751B6943C90C640B891C5C
:1008D0004C436418B5012C1B250C2E04B4434C4327
:1008E0004D43210C691889090591009DE90701D044
:1008F0000121C90704912C4601996708CD072F43B0
:100900004C08059DE10B4D432D0C29466646754369
:1009100002950D4645432E46029D7D1BB441009530
:100920000D465D4301942C0C2F040D465543AE46F5
:100930002D0C3D43029503947546049C2D04641BC5
:10094000049406D2029C039D641C00267541039505
:10095000029401AC70CC009F7D1B01E03EE162E19E
:10096000B44109040095079101940599A4086143D5
:10097000090C0C464443650BE7040C466646744379
:10098000A646640B3C43039502947446049DE4041C
:100990002C1B049406D2029C039D641C0026754106
:1009A0000395029401AC70CC009F7D1BB44101946F
:1009B0000C465C430095650FE7000C465443A64681
:1009C000640F3C43039502947446049DE4002C1B81
:1009D000049406D2029C039D641C00267541039575
:1009E000029401AC70CC009F7D1BB441AE09AF06F0
:1009F000049DC900AD092F43049DA406AD060495CE
:100A0000079D344369180791059DE10B4D432D0C5B
:100A100029466646754302950D4645432E46029D7E
:100A20007D1BB44100950D465D4301942C0C2F04B1
:100A30000D465543AE462D0C3D4302950394754635
:100A4000049C2D04641B049406D2029C039D641C28
:100A5000002675410395029401AC70CC009F7D1B6C
:100A6000B44101948C050694079C890A611800958D
:100A70000791019C0599A4086143090C0D46454363
:100A8000680BEF040D46644665436C0B3C43049FC2
:100A9000ED047D1BAC4602D20025641C6841009E1B
:100AA000019D371B85410846584301950C46460F6A
:100AB000C5005443600F28436546E4002C1B02D256
:100AC0000025401C6E41019D3F1AB5412846BD09D5
:100AD000800628438446A009BF064E020699A40654
:100AE00076180743079D002068410A99079019432B
:100AF0000020099B00906046FF1913434041E20F1C
:100B000064003A43A4460446D71A8C41A04203D954
:100B10000120009020463A46C70F94184041624693
:100B2000D20F2243644664000494009CBE466400D5
:100B3000D71AA446044602978C417746002F01D16C
:100B4000A04204D96046401C8446029A2046C40F45
:100B5000A64694184041049A0546D20F22436446A3
:100B60006400D31A8D417146002901D1A84202D9EF
:100B700028461A46641C10430122002800D0164360
:100B800061020020079B891904465C410223002C66
:100B900002DB491813466441089DCE0A2D145D19E5
:100BA0004B056705E10A2C050D1908993E43C90755
:100BB0006940002B08D0934006D30022761C514197
:100BC000002B01D1760876001C4A002D43DB15422C
:100BD00041D0AA433FD030460BB0F0BD06180D46B9
:100BE0004D41174C7642AC411AD395181C465C41D6
:100BF000134A6D42A24113D3012252054C00D44244
:100C00000AD15C00D4420BD04B4002D59202114372
:100C1000E2E749004908DFE75940C90FC90718E072
:100C200000200849D8E7054801420DD10342F7D01A
:100C3000F2E700000000FF079CB701000000F07F12
:100C40000000E0FF0000F87F114859400143C01246
:100C500041400020C0E70123089A9B069A4205DC28
:100C6000032252078918C90FC907B5E705225207A1
:100C70008918074A1143D2125140ADE770B51546A5
:100C80001C4602460B4628462146FFF7DFFD70BD95
:100C9000FFFFFF7F0346CA02400D10B510430A153F
:100CA00004D00124E4072043002A05DB0A4CA21AE1
:100CB00004D4D040FF2A00DD002010BD4A00002BE4
:100CC00001D0012000E00020101801225205D0427E
:100CD000F2D8C817C04310BD1E0400001F22030C29
:100CE00002D10F22000402D0030E03D004E0002042
:100CF000014670470002083A030F01D10001121F9C
:100D0000830F01D18000921E002801DB4000521E9B
:100D1000120551184205C012411810467047C10F04
:100D2000C90700D04042012292071143D6E70121B2
:100D30008907D3E7F0B58B4C0F09254689B0BD4331
:100D40007BD01D092646AE43FAD00E465E402740B2
:100D5000F60F3E43254071D024012142FBD0FF24F1
:100D6000AD19A4042D1B039501252D05DB02DB0A1B
:100D7000C9022B43C90A29431E010901040F130F9D
:100D8000050121431701880B820391432D098C46ED
:100D9000A90B1E438A039543B30B9A0396433F095D
:100DA000BA0B9403A74302962E467E430497B64699
:100DB0004E19D7190C460196544305977E43371BAD
:100DC0007646BF1B3601B646BE0B361900967646F0
:100DD000BC043719009C01D3641C00946400002FEC
:100DE00001D001263443029E049F754366467E432C
:100DF0000496760034196E0034190094029C019E0A
:100E00001C196643751BAE46069465464519059C3C
:100E100005956C43594375460891691A0191049EE2
:100E200001465143A41B0491611A009C0791E106FD
:100E300005D061090122114302E072E06EE0610910
:100E4000089D00272C0A2D066918049D7C412A0A5A
:100E50002D066918019D6241AC0DAD026D1854411B
:100E6000079A910D920255196141029A64465843BE
:100E70005443069B059A5A43121A131B9A0E9B0160
:100E80005B187A41010B0005C3185141220A200664
:100E900044195A419A4200D2491C01204002814221
:100EA00003D315230226F64302E014230326F64358
:100EB0002020C51AA9401746AF40DA400A43204611
:100EC0000399D8400914731819055118039A384327
:100ED000D2075140AC4009D00122944006D30022F1
:100EE000401C5141002C01D1400840001E4A934251
:100EF00012D3012203989206904207DB0520400797
:100F000009181A480143C012414004E00320400779
:100F10000818C10FC907002009B0F0BD0020F10773
:100F2000FAE705180C464C4111486D42A04115D313
:100F300094181A465A410E48644290410ED301203B
:100F40004A004005824209D35A00824206D35940E2
:100F5000C90F084AC90700201143DDE700200649F0
:100F6000DAE700000000FF07FE070000FFFFFF7F39
:100F70000000E0FF0000F07F0000F87F0121C905BC
:100F80000123411842001B06D3185B0E0AD0C11082
:100F90000722D206891840075242D14201D5520099
:100FA00089187047090208D50146002A03D0C10FED
:100FB000C9070020704710467047420202D0002047
:100FC00002497047072109050143F4E70000F87F53
:100FD000F0B5FF252D04C609C209FF2704462E409F
:100FE0000137CB093E4348402A402B400746002AA0
:100FF0006BD0002B69D0AA4267D0AB4265D00028E5
:1010000000DA32460125ED0529432C43090220026E
:10101000090AD21A4B0C7F24E31A434C000A7C4481
:10102000E35C7D242404121914145B00A218884286
:1010300001D3521C00E0400049420C465C4324119D
:101040005C43DB016415E318040A5C43C502200D10
:101050000C4644436419250A5D432303EC0C0D46FA
:10106000654300030019EB184C42A34201D35B18FF
:10107000401CD4052018002B07D05B00C91804D3EE
:10108000401C002901D1400840003F2189048A42C8
:1010900009D3002A08DC1106090F04D003214907EF
:1010A0004018C00FC007F0BD012241001206891888
:1010B0007F2252069142F6D205214907C84201D546
:1010C0009010F0BDFF20C005F0BD002F00DA3246C1
:1010D0001648AA4207D2AB4205D21902090E17D010
:1010E000F80FC007F0BDFF2563002D06AB42F9D80D
:1010F0004900A942F6D8AB4201D1A942F2D0A94297
:1011000001D1002101E061004908D0050843F0BD8C
:101110001102090EFBD0FF200243D005F0BD0A46A4
:101120000146104654E70000B2B001000000C07F45
:1011300010B501469E240002CA15A307002A02D05A
:101140001843002A04DBA21A002A0CDDD04010BD8F
:101150001206120E01D140004008A21A03D4D0405A
:1011600040420028F3DDFF2248001206904201D9D8
:10117000002010BDC817C043584010BD1F22030CEB
:1011800002D10F2200041CD0030E01D10002083A44
:10119000030F01D10001121F830F01D18000921EA5
:1011A000002801DB4000521ED205511802125118CE
:1011B0001922904004D3491C002801D14908490054
:1011C00008467047C10FC90700D04042012292076C
:1011D0001143D3E701218907D0E7FFB504460D4647
:1011E00081B0243000902168880604D51022E0697F
:1011F0009143216000E00120A84201DD471B00E08F
:1012000000270498A1697A191018081AA06120789B
:10121000C00602D42046C046C046002608E0039817
:101220006268A168805D9047206A401C761C20623D
:1012300004988642F3DB2078C0060AD52046C046D3
:10124000C04606E06268A16830209047206A401CD2
:10125000206238467F1E0028F4DC07E000986268B0
:10126000A168405D9047206A401C206228466D1EA0
:101270000028F3DC2046C046C0462078000602D590
:10128000022005B0F0BD0120FBE7000001694A1C07
:1012900002610878704700B58FB002910021059176
:1012A0000549019379440391114604906846FEF77D
:1012B000A7FF0FB000BD0000E5FFFFFF0A68107038
:1012C000521C0A6070470CC908399A4202D2531C5A
:1012D0000B601070704701468008081A0209101848
:1012E000020A1018020C1018C008820012185200CE
:1012F000891A01E0401C0A390A29FBD27047000014
:10130000F0B501230A0DDB0200249A43E4430025D3
:10131000002A28D05B1E9A4223D05B10D61AA64220
:1013200028DB721C48D0342E18D20222142E2BD85F
:1013300022D00B460D36B34001D100280FD0002437
:10134000701E0B468340DB0FF2412846551EA94311
:10135000002B03D08918002C00D09143F0BD01244C
:10136000EEE79A4239D04A000243F7D0C90FC907C5
:101370002846F0BD002223E00122C30F400001D027
:101380000024E2E70124E0E70346133EB34011D016
:101390000023741E0746A740FC0FF2411746521E59
:1013A0009043002CE5D0002B00D0521CC01969419D
:1013B0009043F0BD0123ECE701220B0318430AD050
:1013C0000023C90FC9072846002AF2D0002BF0D10C
:1013D000054A1143F0BD0123F3E70A0301D10028B8
:1013E000F8D000200149F0BD0000F03F0000F87F78
:1013F000C80212D54803400F002804D0C803C043D8
:10140000012188407047EFF30080000100090321AB
:101410000907084380F300887047002070470000E8
:10142000F8B5224C4E00069DA6420AD8A64201D12C
:10143000002806D15E00A64203D8A6420AD1002A9F
:1014400008D00D24240425422CD029460020FFF783
:10145000CFFFF8BD0C461C430CD4994202D0EFF3E9
:101460000080F8BD904202D0EFF30080F8BDEFF3AA
:101470000080F8BD09242407E5008B4206D0EFF375
:101480000080A043591A06D2284304E0101A05D35D
:10149000EFF30080A04380F30088F8BDEFF30080F5
:1014A000A043F1E7009500F02BF8F8BD0000E0FF45
:1014B000754600F05FF8AE46050069465346C00821
:1014C000C000854618B020B5FEF76CFE60BC002752
:1014D0004908B6460026C0C5C0C5C0C5C0C5C0C500
:1014E000C0C5C0C5C0C5403D49008D46704710B558
:1014F0000446C046C0462046FEF727FE10BD000049
:1015000010B500200249029A00F004F810BD000056
:101510000000F87F10B50C461107090F092904D007
:101520000A290AD008290CD104E011460820FFF747
:101530005FFF06E0510606D501E0510601D5012006
:10154000C007214610BDD10607D501010909CC0805
:101550004907000E0006044309E0410F2002490735
:10156000000A0143200E00061D22D1410143084616
:10157000E7E7000000487047B01B00200149182031
:10158000ABBEFEE726000200704770B58C180578E8
:10159000401C6B075B0F01D10378401C2A1106D158
:1015A0000278401C03E00678401C0E70491C5B1E4C
:1015B000F9D12B0705D40023521E0DD40B70491C02
:1015C000FAE70378401CCB1A921C03E01D780D70DB
:1015D000491C5B1C521EF9D5A142D8D3002070BD16
:1015E00008B53148006B0121490208432E490863C0
:1015F0000846006B491588432B49086300BF2A48F9
:1016000040300068491508432749403108600846C2
:10161000006849150840009000BF00BF23482449D6
:101620000860084602F0B2FD002021494860002110
:101630001F488160C1600174012141610021017670
:101640000121C16107214904016202F023FE002843
:1016500001D000BFFEE71448C06A01218907084392
:101660001149C8620846C06A890488430E49C862A5
:1016700000BF0846C06B890408430B49C86308468D
:10168000C06B89040840009000BF00BF084802F00A
:1016900021FC002801D000BFFEE7062000F038FC46
:1016A00000B20449088008BD001002400024014037
:1016B000E8150020081200203EB5044600200090E6
:1016C00001900290002C04D0012C1BD0022C25D1BB
:1016D00023E0052000900120019007200290694638
:1016E000124802F08DFC124812490860012048603F
:1016F000084603F009FB0F4803F04CFB0D4803F0CC
:1017000065FB0CE011200090012001900720029061
:101710006946064802F074FC01E03EBDFDE700BFEB
:10172000012000F065F800BFF7E70000E815002091
:10173000000301401C16002070B5044600252068F7
:1017400040680121C90608432168486003F026FA71
:1017500005460EE003F022FA401B032809D9E06A8F
:1017600010210843E062206B01210843206301201F
:1017700070BD206840680121C90608400028E9D1F1
:101780001020C043216808604010216808600020D4
:10179000EEE770B50446002520688068C007C00FDA
:1017A000012148404840002820D0206880688843B4
:1017B0002168886003F0F2F905460EE003F0EEF9C7
:1017C000401B032809D9E06A10210843E062206B1E
:1017D000012108432063012070BD20688068C00794
:1017E000C00F0121484048400028E7D10020F3E71E
:1017F00070B504460025002C07D0154800F02EF8DF
:1018000001201449887008701AE003F0C7F90546F2
:1018100005E003F0C3F9401B032800D905E00E489A
:101820000068022108400028F3D000BF0848FFF7F5
:1018300083FF09484030006900200649887008701D
:1018400000200449C87048700871C860C88070BD25
:10185000E81500200C1200200024014038B5044691
:1018600000250020009020688068C007C00F01217B
:101870004840484000283BD12068806808432168E0
:1018800088601020C043216808604010216808600B
:10189000184919480068FEF73FFD1421484300909D
:1018A00002E00098401E009000980028F9D103F053
:1018B00075F9054613E003F071F9401B03280ED9B2
:1018C000E06A10210843E062206B01210843206395
:1018D00000BF00212820015500BF012038BD20682D
:1018E0008068C007C00F0121484048400028E2D06E
:1018F0000020F3E740420F00401200200146074855
:10190000C08808800548C078002804D00020034A19
:10191000D070012070470020FCE700000C1200206E
:1019200070B5002100220023474CA478002C7DD004
:10193000454C2478002C0AD00024434D2C70434C95
:10194000A46805252D052C43404DAC6072E03E4C4B
:101950006478002C6ED001243B4D2C7000246C70F8
:101960003A4C4034246921B2394C0025655F4C194A
:10197000002C01DB002901D100210FE0344C0025AF
:10198000655F4C19334DAC4202DC2C46A14201D1BB
:10199000304903E02E4C24880C1921B22A4CA4684B
:1019A000294E36797600A153274CA468264D2D790F
:1019B0006D00645B244DED686419234DEC602C468A
:1019C0002479641C2C712C4624790A2C32DB2C4699
:1019D000A46822882C46A4682388012016E01A4CAB
:1019E000A4684500645B9C4204DD174CA468450074
:1019F000635B09E0144CA4684500645B944203DA1D
:101A0000114CA4684500625B441CE0B20A28E6DB86
:101A10000D4CE468E41AA41A0B4DEC602C46E46803
:101A20006403240CEC800024EC6000E00BE02C71DB
:101A30000124EC70054C246802252C40022C02D1B4
:101A40000124014D6C7070BD0C1200200024014077
:101A500008120020FF0F000070B505466C4C0121F4
:101A600089022046FEF756FC6A482060C143C00D3B
:101A700001510121DC2001510321E0200151002D01
:101A800036D01921C901E42001510021E82001517B
:101A9000AF214901EC2001510021FC2001513221EC
:101AA000001D01516421001D01510021001D015143
:101AB0000121001D0151A921FF202D300151A32139
:101AC000001D0151A721001D01510021001D0151E0
:101AD000001D0151001D0151001D01512021001D5B
:101AE00001510821001D01510321001D01518BE00E
:101AF000494CE4200159464880304166E8200159AC
:101B0000434880308166EC20015941488030C166ED
:101B1000F02001593E4880300167F42001593C48CB
:101B200080304167F8200159394880308167FC20B6
:101B3000015937488030C167E014015937480160C6
:101B4000FF200530015935484160FF200930015917
:101B500032488160FF200D3001593048C160FF20BC
:101B6000113001592D480161FF20153001592B48D2
:101B70004161FF201930015928488161FF201D3043
:101B800001592648C161FF202130015923480162D3
:101B9000FF202530015921484162FF202930015999
:101BA0001E488162FF202D3001591C48C162FF2070
:101BB0003130015919480163FF2035300159174868
:101BC0004163FF203930015914488163FF203D30C3
:101BD00001591248C163FF20413001590F48016487
:101BE000FF20453001590D484164FF20493001591B
:101BF0000A488164FF204D3001590848C164FF2024
:101C0000513001590548016501200549087070BD32
:101C100084160020AA5555AA00F001088417002058
:101C20003012002010B505480078002804D00020AC
:101C30000249087002F03EF810BD0000301200208A
:101C400000B599B030210DA8FEF764FB0020099083
:101C50000A900B900C9024216846FEF75BFB0F2046
:101C60000D90FF2001301290002013901B48008C33
:101C7000C004C00C0121C9030843149000200E9039
:101C800003200F90002015901090880011900220E2
:101C9000169002211791042118910DA803F042FD1E
:101CA000002801D000BFFEE70720099002200A901B
:101CB00000200B900C90022109A803F0B1FB002832
:101CC00001D000BFFEE701208003009000020890D1
:101CD000684603F0A1FA19B000BD00000032FF1FF2
:101CE00070B5864C86492068884237D1C00D0059AE
:101CF000C943884232D1E2142146824802F00AF8F0
:101D00008149E06A08608149206B0860606B486027
:101D1000A06B8860E06BC860206C0861606C4861F3
:101D2000206C8861E06CC861206D0862606D48625B
:101D3000A06D8862E06DC862206F0863606E4863C2
:101D4000A06E8863E06EC863802000590864842018
:101D5000005948648820005988640CE00120FFF78E
:101D60007BFE0FF0E9FFFFF75DFFFF2201326349C1
:101D7000644801F0CFFF372000F0CAF885B2294649
:101D800000200EF001FA382000F0C2F885B2294692
:101D900001200EF0F9F9392000F0BAF8054629467D
:101DA00000200EF0E1F93A2000F0B2F8054629468D
:101DB00001200EF0D9F93B2000F0AAF8054629468B
:101DC00002200EF0D1F93C2000F0A2F80546294689
:101DD00000200EF071F93D2000F09AF805462946E2
:101DE00001200EF069F93E2000F092F805462946E0
:101DF00002200EF061F93F2000F08AF8064610F04C
:101E000057FE0546294600200EF06CF9402000F0F0
:101E10007FF8064610F04CFE0546294601200EF0DC
:101E200061F9412000F074F8064610F041FE0546C5
:101E3000294602200EF056F9422000F069F885B2DA
:101E4000294600200EF06EF9432000F061F885B2BB
:101E5000294601200EF066F94B2000F059F885B2B2
:101E6000294600200EF04EF94C2000F051F885B2C2
:101E7000294601200EF046F94D2000F049F885B2C0
:101E8000294602200EF03EF94E2000F041F885B2BE
:101E9000294603200EF036F94F2000F039F885B2BC
:101EA000294604200EF02EF9502000F031F885B2BA
:101EB000294605200EF026F9512000F029F885B2B8
:101EC000294606200EF01EF9522000F021F885B2B6
:101ED000294607200EF016F9532000F019F885B2B4
:101EE000294608200EF00EF9542000F011F885B2B2
:101EF000294609200EF006F970BD000000F0010827
:101F0000AA5555AA841600200C000020841A00202F
:101F10000146552901DA002901D1002070478800C7
:101F2000014A1058FAE7000084160020552901DA0A
:101F3000002900D170478A00054B9A58824204D08C
:101F40008A0098500122034B1A7000BFF2E700008C
:101F5000841600203012002010B50FF0EDFEFFF7C0
:101F600061FEFF2201320249024801F0D3FE10BD9A
:101F700000F0010884160020FEB504460D46164602
:101F800001F070FF0746012C59DC2046E10F0918CB
:101F900049104900611A2AD1002E17D1DB48806808
:101FA000012804D1002F09DC0020288006E001F080
:101FB0008BFF019001F0BAFE000C2880D3488068A6
:101FC00002280CD1002F02DB002028809DE101F0C7
:101FD0007BFF019001F0AAFE000C288095E101F042
:101FE00073FF019001F0A2FE000C28808DE1002E0D
:101FF000ECD1C648806801280AD1002F02DC0020FD
:10200000288005E001F060FF019001F08FFE28803C
:10201000BE48806802280BD1002F02DB00202880F8
:1020200073E101F051FF019001F080FE28806CE126
:1020300001F04AFF019001F079FE288065E1022C51
:1020400049DB032C47DC2046E10F09184910490001
:10205000611A21D1002EB9D1AC488068012808D17D
:10206000002F02DC0020288003E001F0FBFE000CC2
:102070002880A6488068022809D1002F02DB0020B2
:10208000288042E101F0EEFE000C28803DE101F0E5
:10209000E9FE000C288038E1002E97D19B4880682B
:1020A000012807D1002F02DC0020288002E001F087
:1020B000D9FE288095488068022808D1002F02DBCD
:1020C0000020288021E101F0CDFE28801DE101F0F3
:1020D000C9FE288019E1042C09DB052C07DC002E41
:1020E00084D1211FC8B201F0CDFE28800DE1062C5D
:1020F00009DB072C07DC002E92D1A11FC8B201F02A
:10210000D7FE288001E1082C04D1002E88D166205A
:102110002880FAE01E2C15DB1F2C13DC2046E10F73
:10212000091849104900611A06D1002E86D101F024
:102130007BFE000C2880E8E0002EA2D101F074FEA6
:102140002880E2E0202C3BDB252C39DC2046E10F07
:10215000091849104900611A13D1002E0BD12146EC
:102160002039CA0F01915118C905080E01F062FE0D
:10217000000C2880C9E0012E88D128886449088095
:10218000C3E0002E0AD121462039CA0F019151180F
:10219000C905080E01F04EFE2880B6E0012E91D14F
:1021A0005B4A128812042B881A4311462246203AB1
:1021B000D30F01929A18D205100E0DF07DFFA4E006
:1021C000262C45DB2B2C43DC2046E10F0918491057
:1021D0004900611A16D1002E0ED121462639CA0FA8
:1021E00001915118C905080E01F030FE009001F070
:1021F0009DFD000C288088E0012E02D128884449EA
:10220000088082E0002E0DD121462639CA0F0191A7
:102210005118C905080E01F019FE009001F086FD65
:10222000288072E0012E70D13949098809042A8872
:102230001143084610F03CFC21462639CA0F019193
:1022400000905118C905080E00990DF04BFF5CE095
:10225000642C13DB6D2C11DC002E06D12146643971
:10226000C8B201F005FE28804FE0012E4DD129882B
:102270002246643AD0B20DF045FF46E06E2C3BDBBF
:10228000732C39DC2046E10F091849104900611A06
:1022900013D1002E0BD121466E39CA0F019151186E
:1022A000C905080E01F0F8FD000C28802DE0012E74
:1022B0002BD128881649088027E0002E0AD1214614
:1022C0006E39CA0F01915118C905080E01F0E4FDDD
:1022D00028801AE0012E18D10D4A128812042B888A
:1022E0001A43114622466E3AD30F01929A18D2052C
:1022F000100E0DF039FF08E0002E02D100202880DA
:1023000003E0012E01D100202880FEBD841A0020A8
:10231000C811002010B58C00034608331A51022959
:102320000AD14369002B01D0002444618369002B4A
:1023300011D0002484610EE0042905D10369002B2B
:1023400009D00024046106E0032904D10369002BAD
:1023500001D00024046110BD70B504466068804758
:10236000054620780007000F002802DD6088401C29
:1023700060806078C006C00FA8421CD1607800075A
:10238000000F082809DA6078000900016178491C0B
:102390000907090F0843607011E060780007000F1B
:1023A00008280CDB20780009052808D12078F021C6
:1023B0008843207003E06078000900016070207895
:1023C0000007000F030010F04DFD0504164B7EBB07
:1023D000F00020780009002807D1207800090001CA
:1023E000401C20700020608004E02078F0218843A9
:1023F00050302070D9E060880F2830DB2078F02141
:102400008843103020706078C006C00FA84217D1F2
:10241000207800098100204608304058002807D065
:1024200020780009820020460830815820468847DD
:1024300000206080207800090001801C20700EE0E0
:1024400020780009000120702078F0218843503066
:102450002070E069002802D02046E1698847A4E0A6
:102460006078C006C00FA8421DD1608896280ADB9C
:102470002069002807D02069002802D02046216961
:1024800088470020608020780009032805D1207843
:1024900000090001801C207014E020780009000170
:1024A000C01C20700EE02078000900012070207808
:1024B000F021884350302070E069002802D0204687
:1024C000E169884771E060887D21C900884231DB7D
:1024D0002078F0218843303020706078C006C00F2B
:1024E000A84217D1207800098100204608304058C2
:1024F000002807D020780009820020460830815843
:1025000020468847207800090001001D2070002027
:10251000608014E020780009000120702078F0210C
:10252000884350302070E069002808D02046E169D7
:10253000884704E0207800090001801C207034E006
:102540006078C006C00FA8421FD1608896280ADBB9
:10255000A069002807D0A069002802D02046A16900
:10256000884700206080A069002802D120690028E7
:1025700005D1207800090001001D207014E02078AA
:1025800000090001801C20700EE020780009000185
:1025900020702078F021884350302070E0690028B6
:1025A00002D02046E169884700BF00BF70BD00002F
:1025B00070B501F033FC60490968401A5F498842F0
:1025C0007DD95F48007801287AD100205C490870E5
:1025D00001F06EFC04463721FFF7A8FC012001F052
:1025E00067FC04463821FFF7A1FC002001F054FCF1
:1025F00004463921FFF79AFC012001F04DFC044606
:102600003A21FFF793FC022001F046FC04463B21EF
:10261000FFF78CFC002001F00DFC04463C21FFF785
:1026200085FC012001F006FC04463D21FFF77EFCFD
:10263000022001F0FFFB04463E21FFF777FC00205B
:1026400001F004FC054601F071FB04463F21FFF751
:102650006DFC012001F0FAFB054601F067FB044622
:102660004021FFF763FC022001F0F0FB054601F07A
:102670005DFB04464121FFF759FC002001F002FCFC
:1026800004464221FFF752FC012001F0FBFB044607
:102690004321FFF74BFC002001F0EAFB04464B21ED
:1026A000FFF744FC012001F0E3FB04464C21FFF757
:1026B0003DFC022001F0DCFB04464D2101E039E045
:1026C00034E0FFF733FC032001F0D2FB04464E2137
:1026D000FFF72CFC042001F0CBFB04464F21FFF751
:1026E00025FC052001F0C4FB04465021FFF71EFC29
:1026F000062001F0BDFB04465121FFF717FC07201F
:1027000001F0B6FB04465221FFF710FC082001F04F
:10271000AFFB04465321FFF709FC092001F0A8FB99
:1027200004465421FFF702FCFFF77CFA01F076FB28
:102730000149086070BD000034120020B80B000091
:102740003112002010B51A481A4908601A49194870
:10275000C160072017494860002116480161816067
:1027600041618021816103F00FFB002801D000BF8F
:10277000FEE770201149086002208860002008618F
:10278000C86088614861486000220A4803F090FBF5
:10279000002801D000BFFEE7064803F012FC00212C
:1027A000044803F02BFC002801D000BFFEE710BD59
:1027B000000400402816002027230000681600208F
:1027C000014909684863704728160020F0B587B0B2
:1027D0000446002700BF7D204001201A84B2124920
:1027E0000888FEF7A4FA039102902046FEF79FFAAC
:1027F00005460E480CC82846FEF79CFA0191009049
:10280000039B029AFDF7F2FF059104900599049845
:1028100010F0A8FB0546FEF73DFA87B204480068B1
:10282000476307B0F0BD00002012002028120020EE
:102830002816002070B500263920FFF769FB0B49E8
:1028400008803B20FFF764FB084948800846408821
:102850000988401A86B23046FEF769FA044600221B
:10286000034BFDF7F3FF034A03C270BD20120020A3
:102870000040CF402812002001B588B0089807908A
:10288000FD4800788021084000287DD1FB48007871
:1028900060218843F9490870F94800891223A02271
:1028A00000210090162004F013FAF6480078002862
:1028B0002ED1F44800780101079810300818007AEA
:1028C00001211022009201910290ED48408906906A
:1028D000EB484089059002464A20069B04F0CCFE56
:1028E000E84800780101079810300818407A012163
:1028F0001022009201910290E14840890690E04840
:102900004089059002465A20069B04F0B5FE27E058
:10291000DC480078012823D10122DA48007801013F
:102920000798103008184078D549498902920091DB
:102930000190D34840890690D24800780101079859
:102940001030081840680590CE48007801010798BB
:102950001030405C04900121069B059A04F068FF4A
:10296000C748C0895023A02212210090162004F0ED
:10297000AFF9C4480078002826D137200021102262
:1029800000920191029000E090E0BD48C08906905D
:10299000BB4880890590024638214A20069B04F0F6
:1029A0006BFE382000211022009201910290B44861
:1029B000C0890690B24880890590024638215A2085
:1029C000069B04F059FE13E0AE48007801280FD1B1
:1029D00000211022AA48C089019202910090A848C3
:1029E00080890346A8A238210690462004F020FFE3
:1029F000A34880894923382236210090252004F0FD
:102A000043F93F20002110220092019102909C483E
:102A1000C08906909A48808905900246382127206F
:102A2000069B04F029FE9648808949238E22362190
:102A300000907B2004F028F9402000211022009211
:102A4000019102908E48C08906908D48808905903A
:102A5000024638217D20069B04F00EFE002007F080
:102A6000B1FB01220521202003F028FF01220521CE
:102A7000104603F023FF01220521900203F01EFF00
:102A800000207D4988703B20FFF742FA7A49888010
:102A900001217948C17001207D4908707D49087085
:102AA000754800788021084373490870724800789F
:102AB000C021084080287DD101221146104603F034
:102AC000FDFE002835D06D480078602188436B49B1
:102AD000087069488088801C6F49884216DC664807
:102AE0008088801C6449888001216348C170007817
:102AF0000221884360490870084600780121084394
:102B00005D49087001F08AF95B4988653F20002122
:102B100010220092019102905948808906905848ED
:102B2000C0890590024638212720069B04F0A4FDA9
:102B30001EE001220521104603F0C0FE002817D038
:102B40004D480078400840004B4908703F20002164
:102B500010220092019102904948C089069048488D
:102B600080890590024638212720069B04F084FDC9
:102B700001221146900203F0A1FE002835D03F4803
:102B80000078602188433D4908703B488088801E5A
:102B9000C82817DB38488088801E37498880012183
:102BA0003548C1700078884333490870084600787A
:102BB000022100E065E108432F49087001F02EF979
:102BC0002D49886540200021102200920191029039
:102BD0002B48808906902A48C089059002463821F2
:102BE0007D20069B04F048FD1EE001220521900295
:102BF00003F064FE002817D01F48007802218843A4
:102C00001D4908704020002110220092019102907D
:102C10001B48C08906901A488089059002463821D1
:102C20007D20069B04F028FD134800788007800F64
:102C300000284CD001F0F2F80F49896D401A7D212F
:102C4000C900884243D90C480078C007C00F00284B
:102C500024D00948808832300F49884204DC064875
:102C6000808832300449888003480078400840005A
:102C70000149087028E00000E01200208A110020BD
:102C8000CA1200208C110020454E5445520000000D
:102C9000881100208911002028230000894800782D
:102CA0000221084000280FD0864880883238C82882
:102CB00004DB8448808832388249888081480078E3
:102CC000022188437F49087001217E48C17001229A
:102CD0001146202003F0F2FD002849D07A48007800
:102CE00060218843784908707648807880210843BD
:102CF0007449887075480078002824D13720002155
:102D000010220092019102907148808906907048CB
:102D1000C0890590024638214A20069B04F0ACFC8D
:102D20003820002110220092019102906848808989
:102D300006906748C0890590024638215A20069BB4
:102D400004F09AFC7EE06148007801287AD10021E5
:102D500010225F4880890192029100905C48C089EE
:102D600003465C4A38210690462004F061FD69E084
:102D700001220321202003F0A1FD002806D000201D
:102D8000FFF71EFD0120544908705BE00122052178
:102D9000202003F093FD002854D04A4880788021F9
:102DA000084000284BD04748007840210843454957
:102DB000087046480078002824D1372000211022CE
:102DC0000092019102904248C08906904048808953
:102DD0000590024638214A20069B04F04DFC38201D
:102DE000002110220092019102903948C08906907A
:102DF000374880890590024638215A20069B04F006
:102E00003BFC13E03148007801280FD1002110224B
:102E10002F48C0890192029100902D488089034675
:102E20002C4A38210690462004F002FD00210120A2
:102E300008F0D2FA00F0F2FF2249C86402E0002054
:102E4000204988701F48C07800281AD00122182312
:102E50001F48C0891E4989890293039200910190FD
:102E6000184880880423024619210690432004F064
:102E70008FFC144880880690FFF7A2FC00211148BF
:102E8000C1701048007840210840002818D000F098
:102E9000C5FF0C49C96C401A7D21C90088420FD971
:102EA0000020FFF78DFC074880883B210690FFF744
:102EB0003DF8FEF7B7FEFFF7BDFC0120064908709C
:102EC00009B000BDE01200208A1100208C11002002
:102ED000CA120020882C00088E11002001B588B08D
:102EE00008980790FD4800788021084000287DD18F
:102EF000FB48007860218843F9490870F948008947
:102F00001223A02200210090162003F0E1FEF648D3
:102F1000007800282ED1F44800780101079810307D
:102F20000818007A01211022009201910290ED48C8
:102F300040890690EB484089059002464A20069B4E
:102F400004F09AFBE848007801010798103008184F
:102F5000407A01211022009201910290E1484089BB
:102F60000690E0484089059002465A20069B04F0EE
:102F700083FB27E0DC480078012823D10122DA48CE
:102F8000007801010798103008184078D549498920
:102F9000029200910190D34840890690D24800786F
:102FA000010107981030081840680590CE48007855
:102FB000010107981030405C04900121069B059A9E
:102FC00004F036FCC748C0895023A022122100908B
:102FD000162003F07DFEC4480078002826D1372053
:102FE0000021102200920191029000E090E0BD4883
:102FF000C0890690BB4880890590024638214A2046
:10300000069B04F039FB3820002110220092019128
:103010000290B448C0890690B24880890590024663
:1030200038215A20069B04F027FB13E0AE480078B5
:1030300001280FD100211022AA48C08901920291D3
:103040000090A84880890346A8A23821069046200F
:1030500004F0EEFBA34880894923382236210090F2
:10306000252003F011FE3F20002110220092019143
:1030700002909C48C08906909A4880890590024633
:1030800038212720069B04F0F7FA964880894923C7
:103090008E22362100907B2003F0F6FD4020002197
:1030A00010220092019102908E48C08906908D48AE
:1030B00080890590024638217D20069B04F0DCFAC9
:1030C000002007F07FF801220521202003F0F6FB05
:1030D00001220521104603F0F1FB01220521900297
:1030E00003F0ECFB00207D4988703920FEF710FFCB
:1030F0007A49888001217948C17001207D49087092
:103100007D4908707548007880210843734908702C
:1031100072480078C021084080287DD101221146E4
:10312000104603F0CBFB002835D06D4800786021B5
:1031300088436B49087069488088801C6F498842C1
:1031400016DC66488088801C6449888001216348B9
:10315000C1700078022188436049087008460078F1
:10316000012108435D49087000F058FE5B498865FD
:103170003F2000211022009201910290594880893D
:1031800006905848C0890590024638212720069BA2
:1031900004F072FA1EE001220521104603F08EFBB6
:1031A000002817D04D480078400840004B4908706F
:1031B0003F20002110220092019102904948C089CD
:1031C0000690484880890590024638212720069BB2
:1031D00004F052FA01221146900203F06FFB00281E
:1031E00035D03F480078602188433D4908703B480E
:1031F0008088801E002817D438488088801E374970
:10320000888001213548C1700078884333490870AF
:1032100008460078022100E065E108432F49087064
:1032200000F0FCFD2D49886540200021102200920D
:10323000019102902B48808906902A48C089059008
:10324000024638217D20069B04F016FA1EE001227A
:103250000521900203F032FB002817D01F480078A8
:10326000022188431D49087040200021102200924D
:10327000019102901B48C08906901A4880890590E8
:10328000024638217D20069B04F0F6F913480078A9
:103290008007800F00284CD000F0C0FD0F49896DD9
:1032A000401A7D21C900884243D90C480078C007E4
:1032B000C00F002824D00948808832300F49884246
:1032C00004DC06488088323004498880034800784E
:1032D000400840000149087028E00000E01200208A
:1032E0008A110020CA1200208C110020454E54453E
:1032F00052000000881100208911002028230000BE
:10330000894800780221084000280FD0864880882C
:103310003238C82804DB8448808832388249888063
:1033200081480078022188437F49087001217E4846
:10333000C17001221146202003F0C0FA002849D0B4
:103340007A48007860218843784908707648807808
:10335000802108437449887075480078002824D17A
:10336000372000211022009201910290714880893B
:1033700006907048C0890590024638214A20069B75
:1033800004F07AF938200021102200920191029075
:103390006848808906906748C089059002463821B0
:1033A0005A20069B04F068F97EE061480078012805
:1033B0007AD1002110225F48808901920291009009
:1033C0005C48C08903465C4A38210690462004F0D8
:1033D0002FFA69E001220321202003F06FFA002870
:1033E00006D00020FFF7ECF90120544908705BE09B
:1033F00001220521202003F061FA002854D04A4818
:1034000080788021084000284BD047480078402130
:1034100008434549087046480078002824D13720E1
:10342000002110220092019102904248C08906902A
:10343000404880890590024638214A20069B04F0C6
:103440001BF9382000211022009201910290394886
:10345000C0890690374880890590024638215A2055
:10346000069B04F009F913E03148007801280FD1D8
:10347000002110222F48C0890192029100902D480E
:10348000808903462C4A38210690462004F0D0F962
:103490000021012007F0A0FF00F0C0FC2249C86411
:1034A00002E00020204988701F48C07800281AD008
:1034B000012218231F48C0891E498989029303925B
:1034C0000091019018488088042302461921069033
:1034D000432004F05DF9144880880690FFF770F9E6
:1034E00000211148C1701048007840210840002890
:1034F00018D000F093FC0C49C96C401A7D21C9001A
:1035000088420FD90020FFF75BF9074880883921EE
:103510000690FEF70BFDFEF785FBFFF78BF9012008
:103520000649087009B000BDE01200208A11002091
:103530008C110020CA120020EC3200088E110020ED
:10354000002108E0182102E000BF4A1ED1B2002984
:10355000FAD1421E90B20028F4D1704710B502286B
:1035600000DB10BD002908D04201074B9A5C802384
:103570001A434301044CE25403E000224301024C8D
:10358000E25400BFEDE700009800002010B50446AB
:10359000022C00DB10BD60010A49085C10210840C4
:1035A000002806D06001074A8018C16901208847B9
:1035B00005E06001034A8018C1690020884700BF08
:1035C000E8E700009800002070B50025002464E1C1
:1035D0006001B449085C8021084000287AD00020AE
:1035E00000F0F4FB05466001AE4940184078002821
:1035F00004D001282AD002286DD14AE06001A949EF
:10360000401840686101A74A891809694018A84212
:1036100007DA60011146085C4021084361015054FB
:1036200013E060019F4940184068A8420DDD600129
:10363000085C7021884361019A4A50546001114628
:10364000085C0121084361015054B6E060019549CE
:1036500040188068A84207DA6001085C40210843EE
:103660006101904A505413E060018E494018C068CF
:10367000A8420DDD6001085C702188436101894A20
:10368000505460011146085C012108436101505407
:1036900093E060018349085C08210840002842D17A
:1036A000600180494018806861017E4A8918096973
:1036B0004018A84210DA60011146085C7021884366
:1036C0006101505460011146085C09210843610101
:1036D000505428E07AE06FE0600172494018C068F9
:1036E0006101704A891809694018A84207DA600127
:1036F0001146085C402108436101505413E0600109
:1037000068494018C068A8420DDD6001085C782156
:1037100088436101634A505460011146085C0121ED
:1037200008436101505460015E49085C082108406B
:10373000002840D060015B4940188068A8420CDD39
:1037400060014018C068A84207DA6001085C4021A7
:1037500008436101534A50542DE06001514940181B
:10376000806861014F4A891809694018A8420EDA39
:1037700060011146085C702188436101505460016A
:103780001146085C012108436101505413E06001B7
:1037900044494018C068A8420DDD6001085C7821EA
:1037A000884361013F4A505460011146085C012181
:1037B00008436101505400E000BF00BF6001394977
:1037C000085C802188436101364A505460013549C4
:1037D000085C10210840002848D160013149085C8C
:1037E0002021084000281BD160012E49085C40219F
:1037F0000840002814D060012A49085C20210843B1
:103800006101284A505460011146085C40218843F8
:103810006101505400F002FB6101224A891888615D
:1038200060012049085C2021084000281ED000F0DB
:10383000F5FA61011B4A89188969401A61018918E2
:103840004969884212D960011146085C1021084379
:103850006101505460011146085C800880006101DC
:10386000505460018018C1690120884760010D49EA
:10387000085C8007800F01280DD160010A4680187E
:10388000C1690020884760010649085C022108439D
:103890006101044A5054601CC4B2022C00DA97E65D
:1038A00070BD00009800002010B51820FEF730FB16
:1038B0002A4948701920FEF72BFB284948601A2036
:1038C000FEF726FB254988601B20FEF721FB2349D4
:1038D000C8601C20FEF71CFB204908611D20FEF774
:1038E00017FB1E4948611E20FEF712FB002803D17A
:1038F00001201A49887002E00020184988701F20B2
:10390000FEF706FBC1B21548203041702020FEF7BB
:10391000FFFA124948622120FEF7FAFA0F4988623D
:103920002220FEF7F5FA0D49C8622320FEF7F0FACF
:103930000A4908632420FEF7EBFA0849486325206A
:10394000FEF7E6FA002804D10121044820308170F6
:1039500003E0002101482030817010BD9800002054
:1039600070B504460D460A48007808210840002832
:103970000CD00848806D2080064858308088288008
:1039800088210448FCF7C6FC012070BD0020FCE73C
:103990008A110020E0120020F8B50025002600273B
:1039A0005C4800788021084000280CD10620FEF7F2
:1039B000AFFA05B20120FDF77FFE56480078C0211E
:1039C00008435449087053480078402108400028B3
:1039D00073D0504949784A004E49091D5018FDF7E7
:1039E0008DFF002831D0002D10DA4A484078410080
:1039F0004848001D415AE843401C081881B2454818
:103A0000407842004348001D81520DE04148407813
:103A100041004048001D405A401B81B23D4840785B
:103A200042003C48001D81523A48016D40784200F6
:103A30003848001D805A08183649086508464078FD
:103A4000401C4870012000F001FD324840781228E7
:103A50005FDB304886888788012416E061002D48A6
:103A6000001D405AB84204DD61002A48001D475A33
:103A700009E061002748001D405AB04203DA6100A6
:103A80002448001D465A601CC4B2122CE6DB2148B3
:103A9000006DC01B801B1F4908650846006D0011A2
:103AA0000865002413E01B4963000A6D091DC95A0B
:103AB000501A002802DB014601E02AE041420229B7
:103AC00003DD01201349887003E0601CC4B2122C8E
:103AD000E9DB00BF0F488078002815D10D48007839
:103AE000402188430B4908700846006D88650846E8
:103AF000016D0948FCF71AFC0649C86507480078BB
:103B000008210843054908700020024908654870EB
:103B10008870F8BDE012002050FB4A008A11002096
:103B200000200649486006484069042108430449CA
:103B300048610448C106086070470000981B0020D7
:103B400000200240214334120021054A51600549FA
:103B5000496902221143034A5161FF210160704704
:103B6000981B002000200240F0B502460B460020C2
:103B700014461D46104E766901273E430E4F7E6166
:103B800000BFEFF31086314672B60EE02E68266055
:103B90002D1D241D461CF0B23F2806D1064E766925
:103BA0000127FF043E43044F7E614028EED300BF4F
:103BB00081F3108800BFF0BD00200240044949692C
:103BC0000122D2021143024A5161FF210160704774
:103BD0000020024070B5044600F0E0FF051905E042
:103BE00000F0DCFFA84201D3032070BD0648006945
:103BF000012109040840000C0028F1D103480249C2
:103C000008610020F1E70000002002401180000060
:103C1000FEB505460F46164600200190002E00DC3A
:103C200001263C2E00DD3C26012E0DDC002407E0A1
:103C3000F02068431E494018A1004750601C84B220
:103C40003C2CF5DB3846FEBD00240EE0F020684336
:103C500017494118601C80000958F0206843144A35
:103C60008018A2008150601C84B23B2CEEDBF02057
:103C700068430F4940188030C76600240DE0F020EB
:103C800068430B4A80183B22121B9200815801980E
:103C90000FF01CFA0190601C84B2B442EFDB304696
:103CA000FDF798FA014600900198FDF791F9CAE7EF
:103CB0009813002070B586B000200590124C134E6A
:103CC000134D00F0E9FD02200090204601900420F1
:103CD000029005A9684600F0CFFB002801D000BF84
:103CE000FEE70AE02A462146012000F0FBFC0028FE
:103CF00003D1FF340134FF350135B442F2D300F073
:103D0000DFFC06B070BD000000F0010800F40108FF
:103D10008416002030B50346002004E084000C59CE
:103D200085005C51401C9042F8D330BD70470000C4
:103D300000B587B0142102A8FCF7ECFA00BF2148B7
:103D4000406B012108431F4948630846406BC00788
:103D5000C00F019000BF00BF00BF0846406B0221AA
:103D60000843184948630846406B02210840019007
:103D700000BF00BF032002900120039002200490A6
:103D80000320059002A90520000700F01FFE002275
:103D900003210520000700F0FBFE03200002029033
:103DA0000120039004900320059002A9064800F02A
:103DB0000DFE012203210902034800F0E9FE07B0CD
:103DC00000BD000000100240000400500146002920
:103DD00002D00848806970470648C0781022104019
:103DE000002804D003484069C043401CF3E7014861
:103DF0004069F0E748000020002801D0002900D1E8
:103E00007047044A12880280034A12880A8000BF61
:103E1000F6E700001C0000201E000020014800689A
:103E20007047000038120020014800687047000009
:103E3000BC1100200146032901DB002070478800E7
:103E4000014A1058FAE700007413002001460329C4
:103E500001DB002070478800014A1058FAE7000093
:103E60008C1300200148006870470000D01100202A
:103E700001460A2901DB002070470148405CFBE74E
:103E8000681300200146022901DB00207047014829
:103E9000405CFBE7D41100200146032901DB002030
:103EA00070478800014A1058FAE70000801300208C
:103EB0000146022901DB002070474800014A105AE0
:103EC000FAE70000E4110020014800687047000094
:103ED000CC110020F8B5044600260020009000BF59
:103EE0002820005D012801D10220F8BD01212820F1
:103EF000015500BF2046FDF74CFC0646002E75D14B
:103F0000E06A11210902884302210843E062480364
:103F100000F0A2FF0746394638480068FCF7FCF974
:103F20004000009002E00098401E00900098002899
:103F3000F9D120688068C007C00F00280CD0E06A63
:103F40000221884310210843E06200BF002128209D
:103F5000015500BF0120C8E7206880680821084398
:103F60002168886000F01AFE054611E000F016FE98
:103F7000401B0A280CD9E06A02218843102108431B
:103F8000E06200BF00212820015500BF0120ACE7FE
:103F900020688068082108400028E7D120688068F0
:103FA000042108432168886000F0F8FD054611E00F
:103FB00000F0F4FD401B0A280CD9E06A0221884376
:103FC00010210843E06200BF00212820015500BFF6
:103FD00001208AE720688068042108400028E7D192
:103FE000E06A0221884301210843E06200BF00210A
:103FF0002820015500BF304677E70000401200201E
:10400000F8B505460C4600260020009000BF282089
:10401000405D012801D10220F8BD01212820415531
:1040200000BF6068072812D22868806B2179491E7A
:104030008A008A181F21914088432279521E9300DA
:10404000D2182168914008432968886327E0606896
:104050000D2812D22868406B2179C91F8A008A185E
:104060001F21914088432279D21F9300D2182168E2
:10407000914008432968486311E02868006B217962
:104080000D398A008A181F219140884322790D3A00
:104090009300D2182168914008432968086320687A
:1040A000142812D32868C068217814394A008A1865
:1040B0000721914088432278143A5300D218A1680E
:1040C000914008432968C86025E020680A2812D377
:1040D0002868006921780A394A008A180721914026
:1040E000884322780A3A5300D218A16891400843C5
:1040F000296808610FE02868406921784A008A1819
:1041000007219140884322785300D218A16891403A
:104110000843296848612068102802D020681128C7
:1041200027D11749286888421ED128688068012154
:10413000C905084000281CD1286880680843296800
:1041400088602068102814D10E490F480068FCF7D9
:10415000E3F80A214843009002E00098401E0090D6
:1041600000980028F9D104E0E86A20210843E862B9
:10417000012600BF00212820415500BF30464BE7F3
:104180000024014040420F004012002070B5044658
:104190000025002C01D1012070BDE06A02210843F6
:1041A000E0622046FDF7F5FA0546002D65D120684E
:1041B000006D1F20C04321680860206840683249B4
:1041C00008402168486020688068304908402168BC
:1041D00088602068C068000B00032168C860206800
:1041E0000069800F80072168086120684069800F9E
:1041F00080072168486120688069000B00032168FE
:1042000088612068C069000B00032168C8612068CC
:10421000006A000B0003216808622068406A000BF6
:104220000003216848622068806A000B000321684F
:1042300088622068C06A000B00032168C862206899
:10424000006B000E0006216808632068406B800F39
:104250008007216848632068806B0D490840216809
:1042600088632068C06B000E00062168C863204682
:1042700000F0C6F800202063E06200BF0021282083
:10428000015500BF284687E700003FDCF00601F13A
:104290000000E0C1F8B504460027002500260020F4
:1042A0000090002C01D10120F8BDE068002802D167
:1042B000207E002800D000BF207E002800D000BF54
:1042C000E06A002806D120630021282001552046FD
:1042D00000F098F82046FDF75CFA0746E06A1021E6
:1042E000084000287ED1002F7CD1E06A112109020C
:1042F000884302210843E062216AA0680843217CC8
:10430000490008430643FF210131E068884202D09A
:10431000E068012802D1FF20013000E00020616840
:1043200008430543207E012812D1207C002807D1B4
:10433000E069401E40030121C9020843054307E02C
:10434000E06A20210843E062206B012108432063DA
:104350002068406827490840284321684860206851
:10436000806825490840304321688860FF21013179
:10437000E068884202D0E068012802D1FF200130C5
:1043800000E00020FF210131884202D0207E012878
:1043900003D1A08A401E000500902068006B0F2109
:1043A00009058843009908432168086320688068EC
:1043B00012490840B04209D100202063E06A02217E
:1043C000884301210843E06211E00BE0E06A02212A
:1043D000884310210843E062206B012108432063D9
:1043E000012704E0E06A10210843E0620127384613
:1043F0005AE70000FF16FFFCFDF7E1FFFE0E1FF17C
:104400007047000010B586B00446142101A8FBF7E0
:1044100081FF00BF0C48406B012108430A494863F3
:104420000846406BC007C00F009000BF00BFE020EF
:104430000190032002900020039001A905200007AD
:1044400000F0C4FA06B010BD0010024070B504467A
:1044500000F0A4FB06462546681C002802D005484B
:1044600000682D1800BF00F099FB801BA842FAD30A
:1044700070BD00004C120020F8B504460E4601271E
:10448000002500BF89480078012801D10220F8BD2D
:1044900001208649087000BF00BF8549496807228E
:1044A00052031140480B834909688200824B9A5895
:1044B0001278914244D17F49496882009A58126823
:1044C000D201D20D91423BD17A49096982009A58B2
:1044D00012881204120E914232D176498968820004
:1044E0009A58127A91422BD17249C96882009A581F
:1044F00092685201520D914222D16E49496982005F
:104500009A581269D203D20B914219D1694989692B
:1045100082009A589269D203D20B914210D1654918
:10452000C96982009A58128C92B2914208D16149AD
:10453000096A82009A58126A9200920C914244D001
:1045400000BF81005C4A515809785A4A11608100C5
:10455000594A51580968C901C90D564A516081002C
:10456000554A515809880904090E524A11618100BF
:10457000514A5158097A4F4A916081004E4A515828
:1045800089684901490D4B4AD16081004A4A515816
:104590000969C903C90B474A51618100464A51580C
:1045A0008969C903C90B434A91618100424A515844
:1045B000098C89B23F4AD16181003F4A5158096A4A
:1045C0008900890C3B4A116200BF00BF20680128A6
:1045D00013D17D20C000FFF7FDFA00285FD1FFF75F
:1045E0009FFA7D20C000FFF7F5FA0746334840697F
:1045F000042188433149486151E02068022824D1D0
:104600007D20C000FFF7E6FA002848D1401E306048
:10461000656813E02846FFF797FA7D20C000FFF792
:10462000D9FA074625484069022188432349486151
:10463000002F01D0356007E0FF350135A06800028A
:1046400061684018A842E5D829E02068032826D1EF
:104650007D20C000FFF7BEFA002820D1401E306048
:10466000E56815E02846FFF7A9FA7D20C000FFF7AE
:10467000B1FA0746114840690121C90288430F4930
:104680004861002F01D0356008E0012040032D185B
:1046900020694003E1684018A842E3D800BF00BF8A
:1046A00000200249087000BF3846F0E6981B002041
:1046B0000010024000210240ECBF0108002002402F
:1046C000012007494969C2071143054A5161114652
:1046D0004969C90FC907002900D0002070470000B0
:1046E00000200240F8B507460C461646012500BFDB
:1046F00064480078012801D10220F8BD01206149F9
:10470000087000BF00BF604949680722520311408A
:10471000480B5E49096882005D4B9A5812789142B5
:1047200044D15A49496882009A581268D201D20D80
:1047300091423BD15549096982009A581288120466
:10474000120E914232D15149896882009A58127AE8
:1047500091422BD14D49C96882009A589268520102
:10476000520D914222D14949496982009A581269F1
:10477000D203D20B914219D14449896982009A58D7
:104780009269D203D20B914210D14049C96982008B
:104790009A58128C92B2914208D13C49096A82001F
:1047A0009A58126A9200920C914244D000BF810044
:1047B000374A51580978354A11608100344A5158B6
:1047C0000968C901C90D314A51608100304A515808
:1047D00009880904090E2D4A116181002C4A51589B
:1047E000097A2A4A91608100294A51588968490109
:1047F000490D264AD1608100254A51580969C903EB
:10480000C90B224A51618100214A51588969C90363
:10481000C90B1E4A916181001D4A5158098C89B209
:104820001A4AD16181001A4A5158096A8900890CD3
:10483000164A116200BF00BFE0B2002801D001207B
:104840005BE77D20C000FFF7C5F90546002D12D1BA
:1048500031462046FFF788F97D20C000FFF7BAF9FE
:1048600005460C484069400840000A494861002D4F
:1048700001D0284641E700BF00200249087000BF70
:1048800028463AE7981B0020001002400021024011
:10489000ECBF010800200240002009494969C90F06
:1048A000C90700290BD00749054A91600649916064
:1048B00011464969C90FC907002900D00120704776
:1048C0000020024023016745AB89EFCDF0B50246D9
:1048D0000B4600206EE0012585402946194000293D
:1048E00067D0374D8608B600AC598507EE0E0F2508
:1048F000B5402C4005252D07AA4201D100250AE02C
:10490000304DAA4201D1012505E02F4DAA4201D127
:10491000022500E003258607F60EB540A54222D108
:10492000274D20352D688D43254E20363560354680
:104930006D688D437560224D603D2D688D43204E1E
:10494000603E356035466D688D4375608507EE0EB7
:104950000F25B5402C461A4D8608B600AE59A64321
:104960008708BF00EE51156847000326BE40354357
:104970001560C508AE0015462035AD594607F70E3F
:104980000F26BE40B543C608B60017462037BD51B6
:10499000956847000326BE40B543956055680126DB
:1049A0008640B5435560D56847000326BE40B543F1
:1049B000D560401C1D46C540002D8CD1F0BD0000C7
:1049C00060180240000400500008005070B5034613
:1049D0000022D0E0012696400C683440002C71D0B3
:1049E0004D68022D02D04D68122D15D1D508AE00AC
:1049F0001D462035A8595507EE0E0F25B540064631
:104A0000AE4330465607F60E0D69B5402843D5082B
:104A1000AD001E4620367051186856000325B5407B
:104A20000646AE4330460D79AD07AD0F5600B54092
:104A3000284318604D68012D08D04D68022D05D01F
:104A40004D68112D02D04D68122D18D1986856006E
:104A50000325B5400646AE4330465600CD68B54006
:104A6000284398605868012595400646AE43304675
:104A700010264D6835402D09954028435860D86868
:104A800056000325B5400646AE43304656008D68B5
:104A9000B5402843D860012636074D683540B542F9
:104AA00068D1384D9608B600A8599507EE0E0F2527
:104AB000B5400646AE43304605252D07AB4202D130
:104AC00000250BE056E0304DAB4201D1012505E059
:104AD0002E4DAB4201D1022500E003259607F60ECC
:104AE000B5402843274D9608B600A851254D2035DE
:104AF00028680546A5432846012636044D683540FA
:104B0000B54202D10546254328461E4D2035286072
:104B100068680546A5432846012676044D68354059
:104B2000B54202D1054625432846164D203568601A
:104B3000144D603D28680546A543284601263605E4
:104B40004D683540B54202D10546254328460D4DF6
:104B5000603D286068680546A5432846012676051D
:104B60004D683540B54202D1054625432846054DDE
:104B7000603D6860521C0D68D540002D00D029E7CB
:104B800070BD000060180240000400500008005092
:104B9000002A01D0816100E081627047014800680D
:104BA000704700004412002070B50446002C01D16B
:104BB000012070BD0F48216808600F482168086017
:104BC0002168606848602168A0688860FFF7E6FF98
:104BD000054606E0FFF7E2FF401B302801D903201D
:104BE000E7E72068C0680028F4D10448216808601D
:104BF0000020DEE7CCCC000055550000AAAA00003A
:104C00000348006803490968401801490860704773
:104C1000441200204C12002010B50024032000F0A4
:104C200009F8002801D0012401E000F033F8204603
:104C300010BD0000F8B504460025134800680028A0
:104C40001ED0114801687D20C000FBF765FB0746B8
:104C500039460E480068FBF75FFB064601F078F81E
:104C600000280BD1042C07D200222146401E00F060
:104C700041F80748046004E0012502E0012500E056
:104C800001252846F8BD00004C12002040120020EB
:104C90004812002008B500BF0E48006801210843F3
:104CA0000C49086008460068C007C00F009000BFAC
:104CB00000BF00BF07484038C06B8905084305495D
:104CC0004039C8630846C06B09040840009000BF23
:104CD00000BF08BD401002400146002905DBCB069D
:104CE000DB0E01229A40024B1A6000BF70470000A1
:104CF00000E100E070B504460D4616462946204600
:104D00000EF0BEF870BD000070B504460025002C02
:104D100001D101253AE0606800280ED11C48006BE3
:104D2000022188431A4908630846406B20218843C2
:104D3000174948630020A07220E0606801280ED166
:104D40001348006B40218843114908630846406BB3
:104D5000402188430E4948630020A0720EE00C48B1
:104D6000006B0121C9028843094908630846406B6A
:104D700080218843064948630020A072204600F045
:104D800023F80020A07200BF607200BF284670BDEB
:104D90000003014070B504460025002C01D101201C
:104DA00070BDA07A052801D10120F9E7A07A00287A
:104DB00000D16072204600F008F8A07A002801D1E6
:104DC0000120A0722846EBE770477047014600209B
:104DD000002901D101203BE08A7A052A01D1012076
:104DE00036E08A7A012A32D14A68002A0ED1194A5D
:104DF000526B20231A43174B5A631A46126B022335
:104E00001A43144B1A6304228A7221E04A68012A69
:104E10000ED1104A526B40231A430E4B5A631A4666
:104E2000126B40231A430B4B1A6304228A720FE061
:104E3000084A526B80231A43064B5A631A46126B78
:104E4000DB141A43034B1A6304228A7200E0012028
:104E50007047000000030140F0B589B0054600200E
:104E600008901422E84902A8FBF776F901204004D3
:104E700085422AD1E548C469032109020C40006A31
:104E800002210840002805D00802844202D1800196
:104E90000890B6E1DD48C06902210840002805D02D
:104EA000C801844202D1C0010890AAE1D748403825
:104EB00000680121490408400028EAD003200002CC
:104EC0008442E6D1D24808909BE1402D6FD006DCA9
:104ED000012D12D0022D48D0202D69D183E0E81F8A
:104EE000FF38FA3800287CD01F214902401A79D0B7
:104EF0000F218903401AF0D10DE1C4484469802193
:104F00000C40002C03D100F07BFB08902CE0BF4844
:104F1000006A02210840002810D0BC48C069090678
:104F2000084000280AD1B948C06949100840002843
:104F300004D0802C02D14812089015E0B348C06913
:104F40000221084000280FD0B048C0690906084077
:104F5000002809D0AD48C06949100840002803D096
:104F6000802C01D1481208904AE1A8484469811573
:104F70000C40002C03D100F043FB089030E0A34824
:104F8000006A02210840002813D0A048C069090621
:104F9000084000280DD19D48C069491008400028EC
:104FA00007D00814844204D1C001089018E054E0EE
:104FB00025E19648C06902210840002810D0934896
:104FC000C0690906084000280AD09048C069491005
:104FD0000840002804D00814844201D1C001089080
:104FE0000EE174E0E0E08948446941150C40002C72
:104FF00003D100F005FB08902EE08448006A0221EE
:105000000840002811D08148C069090608400028DE
:105010000BD17E48C06949100840002805D0C8134C
:10502000844202D18001089016E07848C0690221CC
:105030000840002810D07548C069090608400028BB
:105040000AD07248C06949100840002804D0C8132B
:10505000844201D180010890D2E06C484469011576
:105060000C40002C03D100F0CBFA08902EE06748EA
:10507000006A02210840002811D06448C06909066E
:10508000084000280BD16148C06949100840002839
:1050900005D08813844202D14001089016E05B4895
:1050A000C06902210840002810D05848C06909068C
:1050B000084000280AD05548C06949100840002817
:1050C00004D08813844201D14001089098E04F48F1
:1050D0004469032189040C40002C03D100F090FAAC
:1050E000089017E04948006A02210840002805D0CE
:1050F0004804844202D1C01008900BE04348C069C4
:1051000002210840002805D003208004844201D1F8
:105110008803089074E03D48446940210C403B48B6
:1051200040380068C9020840400C002804D0402CD8
:1051300002D13848089036E03448403800680121F0
:1051400049060840400E00282DD0002C2BD12F48B6
:105150004038C0688007800F07902C484038C068EE
:105160000C2108408008861C0798022806D00328D6
:1051700014D1304627494843089013E0234840386B
:105180004068072149030840470B042F00D9002736
:10519000B80002A908587043089003E00298400044
:1051A000089000BF00BF2BE0184840380468032176
:1051B00049050C40002C04D100F022FA4008089068
:1051C0001CE001204005844204D100F019FA800857
:1051D000089013E001208005844207D100F010FA06
:1051E00006210190FBF798F8089007E0032040059E
:1051F000844203D100F004FAC008089000E000BF28
:1052000000BF089809B0F0BD40C00108401002403E
:105210006CDC020000366E01F8B50446002600255D
:105220000027012149042068084088427ED179483E
:10523000C06BC902084000280DD100BF7548C06B83
:1052400008437449C8630846C06B090408400090CD
:1052500000BF00BF012770480068FF2101310840EE
:10526000002816D16C48006808436B490860FFF7B6
:1052700095FC064606E0FFF791FC801B022801D949
:105280000320F8BD64480068FF2101310840002870
:10529000F1D060484030C06903210902084005464A
:1052A000002D33D0A0690840A8422FD05948403083
:1052B000C0698843054657484030C0690121090448
:1052C000084354494031C8610846C06901210904B6
:1052D000884350494031C8610846C561E807C00F9E
:1052E000002813D0FFF75AFC064607E0FFF756FCEC
:1052F000801B4A49884201D90320C2E74548403013
:10530000C0690221084040080028EFD041484030E1
:10531000C069032109028843A16908433D4940311E
:10532000C861012F07D13B48C06B00E003E089054D
:1053300088433849C8632078C007C00F002809D0C7
:1053400034484030406980218843616808433149CE
:1053500040314861022120680840022809D12D48C7
:1053600040304069C9018843A16808432949403158
:105370004861202120680840202809D12548403074
:10538000406909018843E168084322494031486186
:10539000402120680840402809D11E48403040691B
:1053A00009018843216908431A49403148610121B4
:1053B00049022068084088420AD1164840304069B6
:1053C00003218904884361690843124940314861D7
:1053D0000121890420680840884209D10D484030E5
:1053E000406940218843E16908430A4940314861E6
:1053F0000121890320680840884208D105480068D7
:10540000032149058843216A0843024908600020B6
:1054100037E70000001002400070004088130000D1
:1054200070B504460D46002C01D1012070BD6B48BB
:1054300000688007800FA84218D26848006880087A
:105440008000284365490860FFF7A8FB064607E08F
:10545000FFF7A4FB801B6249884201D90320E5E7DE
:105460005E4800688007800FA842F1D102212068C1
:105470000840022815D1042120680840042807D1DB
:1054800058488068072109038843401855498860B7
:10549000544880680F2109028843A1680843514994
:1054A00088602078C007C00F002854D060680128A9
:1054B00008D14C48006801214904084000282ED139
:1054C0000120B3E76068002808D146480068012140
:1054D00089020840002822D10120A7E7606802283D
:1054E00008D140480068012149060840002816D12B
:1054F00001209BE76068042808D13A484030C06921
:105500000221084000280AD101208FE735484030A9
:10551000006A02210840002801D1012086E73148B5
:105520008068C008C000616808432E498860FFF7A2
:1055300035FB064607E0FFF731FB801B2849884210
:1055400001D9032072E72748806838210840616844
:10555000C9008842EFD1214800688007800FA84227
:1055600018D91E4800688008800028431B4908603D
:10557000FFF714FB064607E0FFF710FB801B1849F6
:10558000884201D9032051E7144800688007800F42
:10559000A842F1D1042120680840042808D111480C
:1055A0008068072109038843E16808430D49886042
:1055B00000F03AF80B4989680F2212021140090ADB
:1055C0008900094A515CC906C90EC84007490860EC
:1055D00007480068FFF72EFB28E700000020024084
:1055E00088130000001002406CBF01084012002028
:1055F0004812002001480068704700004012002057
:1056000000B5FFF7F7FF064989680722120311402A
:10561000090B8900034A515CC906C90EC84000BD88
:1056200000100240ACBF0108F0B58BB014223A491B
:1056300005A8FAF791FD3848143001460EC9C06834
:1056400001AC0EC404903548806838210840002819
:1056500018D13248006809020840C10A0120884078
:105660000A902E484068072149030840450B042D45
:1056700000D90025A90005AA50580A99FAF74CFE4E
:10568000044645E02548806838210840082801D1B3
:10569000234C3DE02148806838210840102825D15E
:1056A0001E48C0688707BF0F1C48C0680C2108400F
:1056B0008008800001A90E58022F05D0032F11D1B8
:1056C00017483446444310E0144840680721490312
:1056D0000840450B042D00D90025A80005A90C5849
:1056E000744302E0059C744300BF11E00B488068DE
:1056F00038210840202801D1840209E00748806849
:1057000038210840182802D10124E40300E00024D5
:1057100020460BB0F0BD00001CC001080010024084
:1057200000366E01F0B587B00446FE4903C9059105
:105730000490FC49083103C903910290002C02D166
:10574000012007B0F0BD2078C007C00F00286DD041
:10575000F548866838210E40C0688707BF0F102EB5
:1057600001D1032F01D0082E0BD1EF480068012191
:105770004904084000286CD06068002869D10120E5
:10578000DFE7606800280DD0A068002808D0E64850
:10579000006980088000A1680843E349086101E0CE
:1057A0000120CEE700BF012109046068884205D1CD
:1057B000DD4800680843DC49086021E00521090450
:1057C000606888420ED1D8480068012189040843E6
:1057D000D549086008460068012109040843D249F8
:1057E00008600DE0D0480068012109048843CE49D3
:1057F000086008460068012189048843CA49086096
:1058000000BF6068002812D0FFF7C8F9054606E01F
:10581000FFF7C4F9401BC82801D9032091E7C2480B
:1058200000680121490408400028F1D011E0FFF789
:10583000B5F9054606E0FFF7B1F9401BC82801D9C4
:1058400003207EE7B8480068012149040840002889
:10585000F1D1022120680840022874D1B248806842
:10586000382108400646B048C0688707BF0F102E91
:1058700001D1022F01D0002E48D1AB480068012190
:1058800089020840002804D06069002801D1012065
:1058900057E7A5484068000C0004E1690843A249A5
:1058A0004860FFF77BF9054606E0FFF777F9401BF4
:1058B000022801D9032044E79B480068012189029E
:1058C00008400028F1D0002E18D197480068072121
:1058D000C9028843A169084393490860FFF7A4FE01
:1058E000914989680F2212021140090A89008F4AE2
:1058F000515CC906C90EC8408D4908608D480068D2
:10590000FFF798F9002848D001201AE760690028BD
:105910002AD0854800680721C9028843A169084345
:105920008149086008460068891508437E49086077
:10593000FFF734F9054607E0FFF730F9401B02286E
:1059400002D90320FDE628E077480068012189029A
:1059500008400028F0D074484068000C0004E16959
:1059600008437149486018E06F480068FF21013121
:1059700088436D490860FFF711F9054606E0FFF717
:105980000DF9401B022801D90320DAE666480068B9
:105990000121890208400028F1D10821206808402F
:1059A000082849D1604880683821084018280BD160
:1059B0005D484030006A0221084000283CD0206A3F
:1059C000002839D10120BCE6206A00281AD05648A8
:1059D0004030006A01210843534940310862FFF713
:1059E000DDF8054606E0FFF7D9F8401B022801D98B
:1059F0000320A6E64C484030006A022108400028F7
:105A0000F1D019E048484030006A4008400046495B
:105A100040310862FFF7C2F8054606E0FFF7BEF81E
:105A2000401B022801D903208BE63F484030006A22
:105A3000022108400028F1D10421206808400428F0
:105A40007CD1002001903848806838210840202807
:105A50000BD135484030C0690221084000286ED083
:105A6000E06800286BD101206BE62F48C06B010F66
:105A700001208843002810D000BF2B48C06B0121B3
:105A8000090708432849C8630846C06B0904084051
:105A9000009000BF00BF0120019027480068FF214F
:105AA00001310840002816D12348006808432249E4
:105AB0000860FFF773F8054606E0FFF76FF8401B34
:105AC000022801D903203CE61B480068FF21013170
:105AD00008400028F1D0E068002817D0032109040D
